:100000000C9465060C949D060C949D060C943A2F56
:100010000C949D060C949D060C949D060C949D06D4
:100020000C949D060C949D060C9485180C94A61CAB
:100030000C9478270C949D060C949D060C949D06B8
:100040000C949D060C949D060C949D060C949D06A4
:100050000C949D060C945E190C949D060C949D06C0
:100060000C949D060C949D060C949D060C949D0684
:100070000C949D060C949D060C949D060C949D0674
:100080000C949D060C949D060C949D060C949D0664
:100090000C949D060C949D060C949D060C949D0654
:1000A0000C949D060C949D060C949D062020202007
:1000B0006162636465666768696A6B6C6D6E6F70B8
:1000C0007172737475767778797A31323334353664
:1000D00037383930524542545F2D3D5B5D5C233BE0
:1000E00027602C2E2F2020202B0014001A0008003F
:1000F00015001700E10004001600070009000A00BF
:10010000E0001D001B0006001900050000000000B3
:100110000000E30021522C002A00130012000C0002
:1001200018001C00340033000F000E000D000B00FF
:1001300029003800370036001000110000000000D0
:100140000000E600225228002B001E001F002000A5
:1001500021002200E100000000000000000000007B
:10016000E0000000000000000000000000000000AF
:100170000000E30001002C002A00270026002500D3
:1001800024002300000000004F00520051005000E6
:10019000000000000000000000000000000000005F
:1001A0000000E600235228002B001E021F0220023E
:1001B00021022202E1002D022E022F023002310222
:1001C000E00000000000000000000000000000004F
:1001D0000000E30023522C002A00270226022502F9
:1001E000240223023500310030002F002E002D00A4
:1001F00000000000000000000000000000000000FF
:100200000000E600010028000044004400440044CF
:10021000BC44AA442078237825782778AD00AE0026
:100220002178247826782878A800000000000000B3
:100230000000E30001002C0000440044004400449E
:10024000BB44A94400000000D000CD00CE00CF0088
:1002500000000000DA00D100D200D9000000000048
:100260000000E6000100280029003A003B003C00A5
:100270003D003E0000000000000000000000000003
:10028000000000000000000000000000000000006E
:100290000000000000000000450044004300420050
:1002A00040003F00000000000000000000000000CF
:1002B000000000000000000000000000000000003E
:1002C000000000000000000000DA0281FFD9F1DB2D
:1002D00020A4A62EAF00A0C0D30000A1C8D3000068
:1002E000AED580A81F408D142000556E6465660051
:1002F00041646A757374005261697365004C6F776D
:1003000065720044656661756C74004C6179657254
:100310003A20003A002C206B00780000000000001A
:10032000FEFFFFFFFFFFFFFFFFFFFFFFFFFFFFFFDE
:10033000FFFFFFFFFFFFFFFFFFFFFFFFFFFFFFFFCD
:10034000FFFFFFFFFFFFFF0F0F0F0F0FFFFFFFFF6D
:10035000FFFFFFFFFFFFFFFFFFFFFFFFFE000000AB
:10036000000000000000000000000000000000008D
:10037000000000000000000000000000000000007D
:10038000000000000000000000000000000000006D
:10039000000000000000000000000000000000005D
:1003A000FFFFFFFF8383838383FFFF83838383FFB9
:1003B000FF8383838383FFFF83838383FFFF8383A1
:1003C000838383FFFFFFFF8282828282FFFF83831A
:1003D0008383FFFF8383838383FFFFFFFF0000008E
:1003E00000000000000000F8FCFCFC9C9CFCFCF8F9
:1003F000F870000000000030787C3C9CFCFCF8F0B9
:100400000000000000C0F0F8F83C3C9CBCFCB8B810
:10041000A00000000000000000000000000000003C
:10042000FFFFFFFF4141414141FFFFFFFFFFFFFF92
:10043000FF4141414141FFFFFFFFFFFFFFFF4141FE
:10044000414141FFFFFFFF4141414141FFFF7F7FAC
:100450007F7FFFFF4141414141FFFFFFFF0000005F
:10046000000000000000003F3F3F3F03070F3F3FF9
:100470003E382000000000383C3E3F3F3F3B3938CB
:100480000000000000070F1F3F3C383B3B3F1F1F91
:100490000F0000000000000000000000000000004D
:1004A0007FFFFFFFF0F0F0F0F0FFFFFFFFFFFFFF27
:1004B000FFF0F0F0F0F0FFFFFFFFFFFFFFFFF0F0B5
:1004C000F0F0F0FFFFFFFFF0F0F0F0F0FFFFF0F0D2
:1004D000F0F0FFFFF0F0F0F0F0FFFFFF7F00000012
:1004E000000000000000000000000000000000000C
:1004F00000000000000000000000000000000000FC
:1005000000000000000000000000000000000000EB
:1005100000000000000000000000000001010101D7
:1005200001010101010202020202020202020303AE
:10053000030303030303040404040404040505057E
:100540000505060606060607070707070808080840
:10055000090909090A0A0A0B0B0B0C0C0C0D0D0DED
:100560000E0E0E0F0F0F1010111111121213131483
:1005700014151516161717181819191A1A1B1B1CFB
:100580001D1D1E1E1F202021222223242425262655
:10059000272829292A2B2C2D2D2E2F30313232338A
:1005A0003435363738393A3B3C3D3E3F4041424393
:1005B0004445464748494A4C4D4E4F505153545577
:1005C0005658595A5B5D5E5F616264656668696B27
:1005D0006C6D6F7072737577787A7B7D7E808283A5
:1005E0008587888A8C8E8F91939596989A9C9EA0E9
:1005F000A2A3A5A7A9ABADAFB1B3B5B7BABCBEC0F6
:10060000C2C4C6C9CBCDCFD1D4D6D8DBDDDFE2E4BE
:10061000E7E9EBEEF0F3F5F8FAFDFF00AF00AE0509
:10062000010902A10185020901A100050919012999
:100630000815002501950875018102050109300999
:10064000311581257F9502750881060938158125A8
:100650007F950175088106050C0A38021581257FF2
:10066000950175088106C0C005010980A1018503B7
:1006700019012AB700150126B700950175108100F0
:10068000C0050C0901A101850419012AA002150168
:1006900026A002950175108100C005010906A1017F
:1006A0008506050719E029E715002501950875015C
:1006B00081020507190029EF1500250195F0750144
:1006C0008102050819012905950575019102950119
:1006D00075039101C005010906A101050719E0296B
:1006E000E7150025019508750181029501750881BE
:1006F000010507190029FF150026FF00950675085A
:1007000081000508190129051500250195057501C8
:100710009102950175039101C009023B000201009D
:10072000A0FA0904000001030101000921110100E0
:1007300001224400070581030800010904010001AA
:100740000300000009211101000122B60007058203
:1007500003200001120100020000000853460100BE
:100760000100010200010C0343006F0072006E00E3
:1007700065000000100366006F006F0073007400D6
:1007800061006E0000000403090400000000000086
:100790003E5B4F5B3E003E6B4F6B3E001C3E7C3E23
:1007A0001C00183C7E3C18001C577D571C001C5E2A
:1007B0007F5E1C0000183C180000FFE7C3E7FF0045
:1007C000001824180000FFE7DBE7FF0030483A0676
:1007D0000E00262979292600407F05050700407F65
:1007E00005253F005A3CE73C5A007F3E1C1C080090
:1007F000081C1C3E7F0014227F2214005F5F005FF4
:100800005F0006097F017F00006689956A006060CD
:100810006060600094A2FFA2940008047E040800B7
:1008200010207E20100008082A1C0800081C2A0836
:1008300008001E10101010000C1E0C1E0C0030388A
:100840003E383000060E3E0E06000000000000009C
:1008500000005F000000000700070000147F147F05
:100860001400242A7F2A12002313086462003649E8
:1008700056205000000807030000001C2241000021
:100880000041221C00002A1C7F1C2A0008083E0888
:100890000800008070300000080808080800000008
:1008A000606000002010080402003E5149453E00EF
:1008B00000427F4000007249494946002141494DAC
:1008C00033001814127F10002745454539003C4A73
:1008D000494931004121110907003649494936008B
:1008E000464949291E000000140000000040340061
:1008F00000000008142241001414141414000041D4
:10090000221408000201590906003E415D594E00BB
:100910007C1211127C007F49494936003E41414119
:1009200022007F4141413E007F49494941007F0902
:10093000090901003E41415173007F0808087F000A
:1009400000417F4100002040413F01007F08142208
:1009500041007F40404040007F021C027F007F0436
:1009600008107F003E4141413E007F090909060011
:100970003E4151215E007F09192946002649494917
:10098000320003017F0103003F4040403F001F2031
:1009900040201F003F4038403F00631408146300AC
:1009A0000304780403006159494D4300007F41412D
:1009B0004100020408102000004141417F00040270
:1009C00001020400404040404000000307080000CE
:1009D0002054547840007F2844443800384444442C
:1009E0002800384444287F00385454541800000824
:1009F0007E0902001824241C78007F080404780073
:100A000000447D4000002040403D00007F1028440D
:100A1000000000417F4000007C04780478007C08DE
:100A2000040478003844444438007C182424180016
:100A3000182424187C007C080404080048545454EA
:100A4000240004043F4424003C4040207C001C203F
:100A500040201C003C4030403C004428102844000A
:100A60004C9090907C004464544C44000008364103
:100A7000000000007700000000413608000002017D
:100A8000020402003C2623263C0000000000000077
:100A900000000000000000000000C0E0F0F8F818BE
:100AA00000C0F0FCFEFFFFFFFFFFFFFF7E00000025
:100AB00000000000000080C0E0E0E0E0E0E0E0E0F6
:100AC000C0800000000080C0E0E0E0E0E0E0E0E0A6
:100AD000C080000000E0E0C0C0E0E0E0E00000E036
:100AE000E0C0C0E0E0E0E0E0C0800000000080C0C6
:100AF000E0E0E0E0E0E0E0E0C080000000000000B6
:100B00000000000000000000E0F0F0F0E0ECEEF784
:100B1000F37020007C7C7C7E007E7E7E7F7F7F0069
:100B20000080C0E07E5B4F5BFEC00000C000DCD7F1
:100B3000DEDEDED7DC00C0000000000000000000A8
:100B400000000000000000000000000000000000A5
:100B5000000000F8FCFEFFE000FFFFFFFFFFFF804A
:100B6000FFFFFFFFFFFFFFFFFF1F07010000000067
:100B70000000000000FFFFFF810000000000008176
:100B8000C3C3C30000FFFFFF81000000000000811D
:100B9000FFFFFF0000FFFFFF01000000000000FF5B
:100BA000FFFF010000000001FFFFFF0000FFFFFF4B
:100BB0009D1C1C1C1C1C1C9DDFDFDF0000000000B6
:100BC00000000000000000000F1F3F7F7F7F7F7F3D
:100BD0003F1E0C001F1F1F3F003F3F3F7F7F7F00D6
:100BE000307B7F7830202030787F3B0003000F7F00
:100BF0000F0F0F7F0F000300000000000000000037
:100C000000000000000000000000000000000000E4
:100C1000000000030F1F3F3F3F3F1F1F3F3F7F7FED
:100C20007F3F3F1F3F7F7F7F7F7C7878381C0F009E
:100C30000000000000000103070707070707070778
:100C40000301000000000103070707070707070764
:100C50000301000000070707000000000000000774
:100C6000070700000000000007070700000001035D
:100C70000707070707070707030100000000000038
:100C80000000000000000000000000000000000064
:100C90000000000000000000000000000000000054
:100CA0000000000000000000000000000000000044
:100CB0000000000000000000000000000000000034
:100CC0000000000000000000000011241FBECFEF54
:100CD000DAE0DEBFCDBF04B603FE18C08091C206C5
:100CE0009091C306A091C406B091C5068730904B81
:100CF000A740B04B59F41092C2061092C30610924E
:100D0000C4061092C506E0E0F8E3099512E0A0E001
:100D1000B1E0E0E8F3E602C005900D92A037B1071C
:100D2000D9F726E0A0E7B2E001C01D92A23CB207CD
:100D3000E1F70E949F270C945A310C940000909187
:100D4000AF04937061F081110BC094609093AF0475
:100D5000109245018091AE0481608093AE040895A5
:100D6000803110F09C63F2CF880F880F982BEECF64
:100D7000482F2091A60490916D0457E0291302C0DA
:100D800080E0089530E0529FF001539FF00D112450
:100D9000E259FB4F8181681306C08081481303C06C
:100DA00085818111EECF2F5F3F4F2770E7CFFC0188
:100DB000AC014C5F5F4F8FEF91E32191822728E0D8
:100DC00030E087FF09C0880F892721503109C9F712
:100DD000E417F50791F70895880FF7CF9091AF04C6
:100DE000937071F08093B0046093B104493708F0B8
:100DF00048E74093B2048091AE0481608093AE04D2
:100E00000895E8EDF0E080818E7F80831092E2000B
:100E10001092DA001092E100A0EEB0E08C918160B7
:100E20008C9380818F77808319BCA7EDB0E08C9183
:100E30008E7F8C9380818F7E8083109256040895DC
:100E40002091E4003091E50095E6A9012091EC00A5
:100E5000822F817020FF06C08091E80080FF06C0CD
:100E600080E008952091E80022FD1AC0809163047B
:100E7000882389F0853089F08091EB0085FD0FC0D3
:100E80002091E4003091E50042175307F9F29150A8
:100E9000E1F684E0089582E0089583E0089581E01A
:100EA00008958091650487FF13C08091E80082FF58
:100EB00006C08091E8008B778093E80004C08091A1
:100EC00063048111F2CF0895809163048823D9F3DC
:100ED0008091E80080FFF8CF8091E8008E77ECCF1A
:100EE000982F9093E900242F762F50E0891731F046
:100EF0007091EC002091ED005091F00021FD07C0B1
:100F00009F5F973071F78093E90081E008953091F9
:100F1000EB003E7F3093EB003091ED003D7F30934E
:100F2000ED003091EB0031603093EB007093EC00FA
:100F30002093ED005093F0002091EE0027FDE0CFCC
:100F400080E00895B0E0A0E0E8EAF7E00C947430A7
:100F5000C8EDD0E088818F7E8883E7EDF0E0808166
:100F60008160808384E082BF81E080935604888121
:100F70008E7F888302EE10E0F80110821092DA0072
:100F800081EEC82ED12CF601108288818F7788835C
:100F900088818068888388818F7D888319BC1092BE
:100FA000630410926404109262041092610490EE43
:100FB000E92EF12CF70180818B7F8083888181600D
:100FC000888342E060E080E00E947007F601808143
:100FD0008E7F8083F801808181608083808188603A
:100FE0008083F70180818E7F808388818061888300
:100FF000CDB7DEB7E8E00C949030FC0180916B0433
:1010000090916C0486179707A0F06115710529F47B
:101010009091E8009E779093E80090E0611571054B
:1010200051F4911108C08091E80082FF34C080E043
:101030000895BC01F2CF809163048823C1F185300B
:10104000C1F18091E80083FD30C08091E80082FD0D
:10105000EACF8091E80080FFE1CF8091F3002091FA
:10106000F200382F6115710519F02830310558F05C
:1010700091E02830310509F090E02091E8002E77CA
:101080002093E800CBCF81918093F10061507109EA
:101090002F5F3F4FE7CF80916304882341F0853075
:1010A00041F08091E80083FFBECF81E0089582E0A7
:1010B000089583E008958091580408952FB7F89417
:1010C000609152047091530480915404909155049E
:1010D0002FBF0895909141019923D1F090914F0431
:1010E00097FF16C0E82FE695E695E695EE31E0F419
:1010F000F0E0E658FD4F282F277081E090E001C016
:10110000880F2A95EAF78095928189238283089532
:10111000E4E7F2E09191891303C0DF0111971C927B
:1011200092E0EA37F907B1F70895909141019923C8
:10113000C1F090914F0497FF14C0E82FE695E69513
:10114000E695EE31F8F4F0E0E658FD4F877021E0C7
:1011500030E001C0220F8A95EAF78281822B8283D8
:101160000895A4E7B2E0EFEF90E02D91821751F0DF
:10117000EF3F19F4211101C0E92F9F5F9630A9F7C5
:10118000EF3F09F408950E2E000CFF0BEE58FD4FB3
:10119000E6CFA3E0B0E0EFECF8E00C947A302091D9
:1011A0004D0430914E0428173907A1F090934E0456
:1011B00080934D04E0914B04F0914C04309751F032
:1011C00024E029839B838A830084F185E02DCE016E
:1011D000019609952396E2E00C949630A3E0B0E0E6
:1011E000E4EFF8E00C947A302091490430914A04FD
:1011F00028173907A1F090934A0480934904E0919D
:101200004B04F0914C04309751F023E029839B83E9
:101210008A830084F185E02DCE01019609952396FD
:10122000E2E00C94963080914704882359F0E091D5
:101230004B04F0914C04309729F00190F081E02D9F
:101240000995089580E0089580913C0480FD16C0C2
:1012500081FD16C082FD16C080913B048823A1F059
:10126000883280F428E0829FC001112468E270E097
:101270000E94AD30862F672B39F0089582E00895E3
:1012800084E0089588E0089581E0089580913C0409
:1012900080FD14C081FD14C082FD16C080913A0407
:1012A000882381F08E3180F420E5829FC0011124D3
:1012B0006EE170E00E94AD30862F089584E10895BC
:1012C00088E2089588E0089580E50895282F35EB99
:1012D0002303C001112497FF04C080589109892F6E
:1012E000089580589F4FFBCFFA01811101C0FB0187
:1012F0000995089530914804311123C08B3191052F
:101300001CF14B97FC01EE0FFF1FDF01A80FB91F67
:10131000AE56BC4F11963C911197361307C03C91C5
:10132000341304C012963C91321771F031E03093BF
:101330009103E80FF91FEE56FC4F6183408322832F
:1013400003C08B319105F4F20895539A10929103E2
:101350000895EFEAF4E0248130E1231B08F420E053
:1013600024838091AE0481608093AE040895EFEAF7
:10137000F4E0248130E1230F08F42FEF24838091DF
:10138000AE0481608093AE040895EFEAF4E04381F7
:1013900020E1421B08F440E08181628190E00E94DC
:1013A000EE060895EFEAF4E0438120E1420F08F4ED
:1013B0004FEF8181628190E00E94EE060895EFEA8E
:1013C000F4E0628120E1621B08F460E081814381E6
:1013D00090E00E94EE060895EFEAF4E0628120E1D9
:1013E000620F08F46FEF8181438190E00E94EE0666
:1013F0000895EFEAF4E08181438162818850990B7E
:101400000E94EE060895EFEAF4E0818190E04381C6
:10141000628108960E94EE0608958091AF04869539
:101420008695815009F48FE00E949F06089580916F
:10143000AF04869586958F5F803108F081E00E9429
:101440009F0608959BE0899F802D1124980F973364
:1014500008F096E320914804222321F09C3128F0E3
:101460009BE108958B3108F48BE10895322F50E011
:10147000FA01EE0FFF1FE256FE4F91A9905297FD21
:101480009195440F551FFA01E253FE4F2081231B13
:10149000330B290F311D97FD3A95620F0895622F86
:1014A0000895E42FF0E0EE0FFF1FE253FE4F40815E
:1014B00034EE439F412D1124E82FF0E050E0445ECC
:1014C0005F4FDA01A21BB1099D01B7FF03C031953F
:1014D0002195310993E0220F331F9A95E1F7AF016F
:1014E000421B530B9A0157FD20E0582F259F212DB9
:1014F0001124822F0895E42FF0E0EE0FFF1FE25336
:10150000FE4F408134EE439F412D1124E72FF0E040
:1015100050E0445E5F4FDA01A21BB1099D01B7FFA5
:1015200003C031952195310993E0220F331F9A951D
:10153000E1F7AF01421B530B9A0157FD20E0279FB3
:10154000212D1124722F08950E947A090895FF9287
:101550000F931F93CF93DF93182F062FF42ED0E015
:10156000C0E02F2D402F612FCE010E94A40A2196AA
:10157000C633D105B1F7CDB7DEB7E5E00C949330B3
:10158000FC019B01009729F480E077FF2BC080E8E5
:101590000895AC0197FF04C044275527481B590BF9
:1015A000B901640F751F37FD10C0241B350BC9012D
:1015B000A5E0880F991FAA95E1F70E94AD3080E25F
:1015C000861BF7FF0FC081950895CB0165E0880F5A
:1015D000991F6A95E1F7BA01621B730B0E94AD3047
:1015E00080E6EECF0895EF920F93CF93DF93D72F3E
:1015F000C82FC9010E19BA010E94C00A602F681BCA
:101600007D2F8C2FDF91CF910F91EF900895EF9266
:101610000F931F93CF93DF93D62FC72F182FC90196
:101620000E19010FBA010E94C00A081B202F219F2A
:10163000212D1124822F6D2F7C2FDF91CF911F91AF
:101640000F91EF900895EF920F931F93CF93DF9335
:10165000D62F172FC82FC9010E19070FBA010E94E4
:10166000C00A702F781B719F712D11246D2F8C2F44
:10167000DF91CF911F910F91EF900895E82F86FD94
:10168000E0952E2F2F7086FD2F5FE695E695E69567
:10169000E670F0E0EA56FE4F9181929F902D212D49
:1016A000112492959F702295207F922B2081920F7A
:1016B00087FD919580E8890F089540913D015091F3
:1016C0003E0125E038E0429FC001439F900D529FAC
:1016D000900D1124875E994C90933E0180933D01BB
:1016E000890F089530E020E0869F212D969F200DE0
:1016F000311D1124C9010895982F80914804882331
:1017000029F081E09B3128F080E003C081E096332E
:10171000D8F70895AF92BF92CF92DF92FF920F93C6
:101720001F93CF93DF93362F472FE82FF0E0E55E2E
:10173000FA4F71110FC0E4918E2F2E2F6E2F722F42
:10174000DF91CF911F910F91FF90DF90CF90BF90CD
:10175000AF900895C72FD0E02491F22E022F10E011
:1017600056E0659FC0011124EFEFF0E0BF010E9439
:101770005630832F90E0880F991F35E5369FD001B2
:10178000379FB00D11248A1B9B0B982F990F980F30
:101790006F01CC1ADD0AC09ED001C19EB00DD09E53
:1017A000B00D11248B2F499FA0011124452F5527DF
:1017B0006F01C41AD50AC09EA001C19E500DD09ED3
:1017C000500D11245F01A91AB108AC9E6001AD9EB5
:1017D000D00CBC9ED00C1124CD2CDD24EC19FD09BD
:1017E000E09FE001E19FD00DF09FD00D1124ED2F7F
:1017F00062307105A1F050F46115710509F49ECFB6
:101800006130710581F0EB2F852F98CF6430710521
:1018100069F080F06630710509F490CFF4CFE22FC3
:101820002B2F8D2F8BCFE22F252F88CFEB2F822FC1
:101830002D2F84CF2B2F8F2DE52F80CFB0E0A0E070
:10184000E4E2FCE00C9475308C01FC01E65CFD4F99
:101850008081682349F1D090B104D091B204C09145
:10186000B004EC2EF12C0E945D0B282FC7018C5484
:101870009F4F68E671E00E94AD308E199F0997FD79
:101880000396959587959595879523706C2F289F3E
:10189000600D11247D2D8D2F0E948A0B462F282F3D
:1018A000672FC8010E94A40ACDB7DEB7E7E00C9409
:1018B0009130B0E0A0E0EFE5FCE00C9472305C0108
:1018C000809142010E94220AC82F192F6091B3040F
:1018D00066958091A7049091A8040E94720BF82E3F
:1018E000D0E0CE01880F991F9C0122563E4F69011E
:1018F000C11740F0812F0E947C0BCDB7DEB7EAE024
:101900000C948E30FE01E65CFD4F80819091430186
:10191000892309F451C0D601D0964C91D0974057F5
:10192000550BD1962C912052330B449FB001459F0B
:10193000700D700D1124229FC001239F900D900DFA
:101940001124860F971F082F8230910520F1EFEFA9
:10195000813EBEE19B0738F4FC01B5E0F695E795C2
:10196000BA95E1F7E85FF1E0AF2FAE0FBB27BB1FE1
:10197000BD0175956795062F669FD001679FB00DD5
:10198000B00D11248A179B07E0F4EFEFE60FEF1775
:1019900058F70FEF0F0F6091B0047091B104809170
:1019A000B204EF2CF50109950E948A0B462F282FCF
:1019B000672FCE010E94A40A2196F2E0CF0ED11C1F
:1019C00097CF6F3F41F3F1E0F60FE1CFEF92FF9237
:1019D0000F931F93CF93DF937C01809142010E946C
:1019E000220AC82F192F6091B3046695669521E0ED
:1019F000620F08F46FEF8091A7049091A8040E94F1
:101A0000720B082FD0E0C11740F0812F0E947C0B91
:101A1000CDB7DEB7E6E00C949230FE01E65CFD4FF8
:101A2000808190914301892391F06091B00470917D
:101A3000B1048091B204202F4C2FF70109950E9428
:101A40008A0B462F282F672FCE010E94A40A2196C9
:101A5000DACF80E00895F894E82FE295EF70F0E097
:101A600031A1282F2F7081E090E001C0880F2A95C6
:101A7000EAF7982F9095932391A392A1892B82A3A3
:101A8000789408950F931F9380914704882329F039
:101A90000E945E081F910F9108950E945E080091B8
:101AA0001E0310911F032091200330912103600F2A
:101AB000711F821F931FEECF90914F0492FF10C0B1
:101AC00041E0282F2471243009F040E031E0282F34
:101AD0002871283009F030E0431711F02CE08227FC
:101AE00093FF10C041E0282F2471243109F040E019
:101AF00031E0282F2871283109F030E0431711F028
:101B00002CE082273091500430FF10C051E0282F84
:101B10002171213009F050E041E0282F2871283050
:101B200009F040E0541711F029E0822731FF10C07E
:101B300041E0282F2171213109F040E031E0282FC8
:101B40002871283109F030E0431711F029E082278D
:101B500094FD877E089582389105B9F1B0F4813300
:101B6000910509F47DC048F48932910509F46DC0EE
:101B70008A32910509F47BC008958533910509F4F3
:101B80005FC08933910509F10895833E9105D9F12C
:101B900038F4803E910529F1823E910579F108954E
:101BA000863E9105D9F1873E910509F43EC0843EF9
:101BB000910541F52091500421FF24C080914F04EC
:101BC00084FD19C087EE90E0089520914F042370A2
:101BD00009F05AC02091500423FF14C089E290E01C
:101BE000089520914F0420FD38C03091500430FFFB
:101BF00009C024FF43C090E080E0089520914F0485
:101C000022FDF7CF089520914F0422FD3AC0309174
:101C1000500430FD39C024FFF5CFEDCF20914F04A3
:101C200023FFF0CF24FDE7CFCDCF20914F0423FD3C
:101C30002EC03091500431FFEECF84EE90E0089535
:101C400020914F0425FFDECFC9CF20914F0425FD01
:101C500021C02091500423FFD5CF89E390E0D2CF5B
:101C600020914F0426FFCECF8AE290E00895209184
:101C70004F0426FFC7CF81E390E0089583EE90E004
:101C8000089582EE90E0089580EE90E0089586EE4B
:101C900090E0089585E390E00895972F7830B8F4A8
:101CA0006630A8F48530B0F470E026E0929F600DB5
:101CB000711D1124FB0190E3899FE00DF11D11249A
:101CC000EE0FFF1FE851FF4F85919491089580E03A
:101CD00090E0089581E0FCCF1F93CF93DF930E94A3
:101CE000AB0DEC01C11580E5D807F0F5C11580E416
:101CF000D80708F09CC0C03ED10520F5CD3CD105E9
:101D000008F082C0C83AD10578F4C53AD10508F088
:101D100073C0C130D10519F1209709F1C430D10544
:101D2000F0F4D0E0C0E01BC0C33CD105D0F7C85AE6
:101D3000D0E0CC0FDD1FC45BDE4F0990D881C02DF1
:101D4000D4640DC0C11580E2D80708F0D1C0C11518
:101D500081E0D80708F05AC0C83ED10510F7CE017F
:101D6000DF91CF911F910895C03682E5D80718F50D
:101D7000C03482E5D80708F06BC0C03282E5D807CE
:101D800008F05FC0C11582E5D80708F497C02C2F72
:101D90002695269580E2289F900111248C2F837030
:101DA000C1E0D0E002C0CC0FDD1F8A95E2F7C22B64
:101DB000D32BDD68D4CFC03A82E5D80760F4C038B1
:101DC00082E5D80708F459C0CF71D0E0DC2FCC27CA
:101DD000C46FD06AC4CFC03C82E5D80708F462C0A3
:101DE000C03E82E5D80708F09CCFDC2FCC27CC275B
:101DF000DF71C06FD06AB3CFC55AD0E0C75BDE4F8A
:101E0000C881D0E0D064ABCFD065A9CF8D2F0E9420
:101E10005C0D182FCE0199270E94AB0DC12FD0E089
:101E2000DC2FCC27CC27DF71C82BD92B98CFCE0144
:101E300099270E94AB0DCC27DF70C82BD92BD06A15
:101E40008ECFCF71D0E0DC2FCC27C16FD06A87CF87
:101E50002C2F26952695277080E2289F900111242B
:101E60008C2F8370C1E0D0E002C0CC0FDD1F8A95BB
:101E7000E2F7C22BD32BDC6872CF2C2F2695269548
:101E8000277080E2289F900111248C2F8370C1E07D
:101E9000D0E002C0CC0FDD1F8A95E2F7C22BD32B16
:101EA000DA685DCF8C2F8F710E945C0DC82FD0E057
:101EB000DC2FCC27CC27DF71D06251CF8C2F8F71D4
:101EC0000E945C0D55E0D695C7955A95E1F7CF7005
:101ED000D0E0DC2FCC27282F30E084FF05C044E081
:101EE000220F331F4A95E1F7C22BD32BD06937CF8E
:101EF0008D2F8F710E945C0D182FCE0199270E94A3
:101F0000AB0DC12FD0E0DC2FCC27CC27DF71C82B45
:101F1000D92BD2CF80959091E60298239093E60238
:101F200008958091E6029091BD02892B9091BC02A8
:101F3000992391F0892B90914101992371F090910F
:101F40004F0497FF0AC09EE12CE732E040E0915039
:101F500040F441111092BC02089596E024E732E06B
:101F6000F5CFF90151919F01552389F34F5FEFCFD1
:101F70008091A60490916D04981301C008958F5F1D
:101F80008770FACFB0E0A0E0E8ECFFE00C9473308B
:101F90007C0100913F031091400380912C039091AC
:101FA0002D03082B192BCFE0D0E0CC24C394D12CE7
:101FB000BC2EC6010C2E02C0880F991F0A94E2F7AE
:101FC00080239123892B49F4219790F7B12C8B2DF5
:101FD000CDB7DEB7E9E00C948F30B7018C2F0E94AB
:101FE0004D0E0E946C0E019779F3F1CFCF93DF93E2
:101FF000EC010E94C20FBE010E944D0E0E946C0EA9
:10200000DF91CF910895983078F5863068F5E82F04
:10201000F0E086E0989FE00DF11D11249E2F97704F
:1020200083E0F695E7958A95E1F7EE0FFF1FEE0F37
:10203000FF1FE456FD4F50E040E080E0219130E08A
:10204000092E02C0369527950A94E2F721703327AE
:10205000042E01C0220F0A94EAF7822B4F5F5F4FD4
:102060004430510559F7089580E00895983098F567
:10207000863088F5E82FF0E086E0989FE00DF11DAE
:1020800011248E2F877041E001C0440F8A95EAF732
:1020900083E0F695E7958A95E1F7EE0FFF1FEE0FC7
:1020A000FF1FE456FD4F30E020E070E05191DF016A
:1020B0001197CB01022E02C0969587950A94E2F7FC
:1020C000817081958527842385278C932F5F3F4FCF
:1020D0002430310559F708959093400380933F03CE
:1020E000089521E030E002C0220F331F8A95E2F705
:1020F0002095309580913F03909140038223932354
:102100000E946C1008959091BB0280958923809362
:10211000BB02282F277069F4891759F09091500459
:1021200092FF07C08695869586950E947110109241
:10213000BB02089521E030E002C0220F331F8A95D0
:10214000E2F780913F0390914003822B932B0E94F2
:102150006C10089590932D0380932C030895FC0137
:1021600024812223C1F0808191810E94F60F9295F3
:102170009F70963091F058F4925F9F70923058F4AF
:10218000803F19F030F4883E30F481E008959A5F82
:10219000F4CF843FD1F380E00895883EB0F3813FCF
:1021A000D1F7F3CFA6E0B0E0E8EDF0E10C947930A0
:1021B00049835A8349815A819923A1F0222391F0BE
:1021C000CA010E94C20F182F682F89819A810E942C
:1021D000361069817A81812F0E944D0E2696E3E0A8
:1021E0000C949530CA010E940310182FF2CFCF93A0
:1021F000DF93682F81E06A3019F06D3031F480E0B0
:102200000E948511DF91CF9108958091C006909131
:10221000C10626E0FC01AAEBB6E001900D922A95DA
:10222000E1F7603E08F458C026E0FC0111922A95BF
:10223000E9F7C091C006D091C10646E050E0BE016A
:102240008AEB96E00E94F2309E012A5B3440892B93
:1022500041F1C90145E0969587954A95E1F741E03E
:1022600050E0BA0102C0660F771F8A95E2F7CB01F2
:102270006091B8047091B904862B972BB9016B5FFC
:102280007F4FE5E076956795EA95E1F702C0440F48
:10229000551F6A95E2F7842B952B9093B904809390
:1022A000B8042A5F3F4F4091B704642F70E0C90122
:1022B0000E945630481B463010F4240F311D211562
:1022C00072E0370710F030E020E026543B4F3093A7
:1022D000C1062093C00696CFF6E06F9FB00111248F
:1022E0006657784F46E050E00E94E930A2CFCF9386
:1022F000DF93EC01FE018491811103C0DF91CF9146
:1023000008950E94F7102196F5CFCF93382FE091D2
:10231000C006F091C106EA5BF4402091B704622F39
:1023200070E0CF010E945630281B822F332361F0CA
:1023300066E00E94A130C82FC15010F4CF910895DB
:1023400080E20E94F710F8CF9F01280F311D211560
:10235000324018F080E0F0E0E0E08E0F9F2F911DFA
:1023600086549B4F9093C1068093C006E7CF0E948E
:10237000771181E00E9485110895809141018823A1
:1023800059F180914F0487FF27C00E94910F8093DD
:102390007B0240E250E06EEB72E08AE792E00E943E
:1023A000F230892BC1F080E2EAE7F2E0AEEBB2E076
:1023B00001900D928A95E1F7E0914B04F0914C0465
:1023C000309749F086E080937A020480F581E02D11
:1023D0008AE792E0099508950E94910F8093720216
:1023E00048E050E06EED72E082E792E00E94F23049
:1023F000892B89F388E0E2E7F2E0AEEDB2E00190EC
:102400000D928A95E1F7E0914B04F0914C043097DE
:1024100011F30280F381E02D82E792E0DBCF882385
:1024200021F00E948A0F0E94BD110895882339F07F
:102430009091E602982B9093E6020E94BD110895B8
:102440000F931F93CF93DF938B01EA019091630465
:10245000943061F58093E9008FEF9091E80081500E
:1024600095FD06C095ED9A95F1F700008111F5CF25
:102470008091E80085FF1AC00E942007811111C0D9
:102480008091E80085FD06C08091E8008E778093FA
:10249000E800F2CFF80181918F018093F10021973C
:1024A00079F78091E8008E778093E800DF91CF91F3
:1024B0001F910F91089543E050E0BC0182E00E941B
:1024C0002012089546E050E0BC0182E00E942012F4
:1024D000089540E250E0BC0182E00E94201208957D
:1024E000CF93DF93EC0148E050E0BC0181E00E9413
:1024F000201288E0FE01A9E5B4E001900D928A95D2
:10250000E1F7DF91CF91089581E08093E00080E2D0
:102510008093D8001092C9008FE19EE40197F1F7F3
:1025200000C0000087E090EBDC018093C20690932E
:10253000C306A093C406B093C50688E19CE00FB61D
:10254000F894A895809360000FBE90936000FFCF31
:1025500080919103882339F13BB1377F2BB12860FB
:102560004FB7F89482E993E0FC015191CF0168E004
:102570002BB9000000C057FF3BB9550F000000C049
:1025800000C000C03BB900C06A9591F7F4E0843305
:102590009F0751F74FBF8FE594E00197F1F700C017
:1025A0000000109291030895B0E0A0E0EAEDF2E19E
:1025B0000C9472307C015B016A0180911D0301E083
:1025C00010E08A3010F40AE010E0C1E0D0E0B5017C
:1025D000C701F6010995811104C021960C171D074A
:1025E0002CF4CDB7DEB7EAE00C948E30CC9F90018E
:1025F000CD9F300D300D112490E080E045E34A95E9
:10260000F1F70000019682179307C1F7E0CFAB0105
:1026100024E630E0BC0188E70E940A2E21E0892BE5
:1026200009F020E0822F08958091380490913904B8
:10263000911103C091E089270895882369F062E031
:1026400070E08DE196E00E940713811103C0809134
:10265000380408951092380480913804EBCFCF935A
:10266000C0913804809139048823D1F00E945E081B
:10267000605A75418F4F9F4F6093340470933504B7
:102680008093360490933704C11108C062E070E073
:102690008BE196E00E940713811105C0C0913804B8
:1026A0008C2FCF91089581E080933804F7CFA3E079
:1026B000B0E0EDE5F3E10C946B300E94420D6093C5
:1026C000710370937203809373039093740330913A
:1026D000AF04232F2370722E19F0732E7694769404
:1026E000209145012130D1F0222351F0223009F40C
:1026F00010C3233009F417C32396E1E10C9487300B
:10270000109242016093A7047093A8048093A904D7
:102710009093AA0481E080934501EECF909140010F
:1027200081E079120BC0832F837020913F0130E04C
:1027300091E08217130609F490E0892F817080934D
:1027400044018091B40490914301981739F080932B
:10275000430140E060E080E00E94A70A3FE03715B7
:1027600080F0E72DF0E0E45AFE4C0C94E3308091C9
:102770004401882309F450C140E060E080E00E94F9
:10278000A70A80E049C1809142010E94220A898300
:10279000192F6091B0047091B1048091B2040E942D
:1027A0008A0B062FF72EE82E9981892F90E09B83C4
:1027B0008A83FA81F11710F0812F71C0EA81FB81C1
:1027C000E65CFD4F808190914301892339F02E2DE5
:1027D000402F6F2D8A819B810E94A40AEA81FB8190
:1027E0003196FB83EA83E5CF809142010E94220A61
:1027F0008983192FF090B1040091B2042091B004A4
:102800002A83622F7F2D802F0E948A0BE62ED72EDF
:10281000C82E6091B3043A81630F7F2D802F0E94F0
:102820008A0B062FF72EB82E9981892F90E09B8373
:102830008A83FA81F11708F0BFCFEA81FB81E65C59
:10284000FD4F908180914301892361F02B2D402F12
:102850006F2D90FD03C02C2D4E2D6D2D8A819B81F7
:102860000E94A40AEA81FB813196FB83EA83E1CFCF
:10287000809142010E94220A092FF090B104E09059
:10288000B2042091B30410E4129F112D1124282FBB
:1028900030E03B832A839A81901720F0802F0E949A
:1028A0007C0BBAC0EA81FB81E65CFD4F8081909190
:1028B00043018923C9F0EA81FB81EE0FFF1FE25635
:1028C000FE4F81A982958F706091B004819F600D49
:1028D00011247F2D8E2D0E948A0B462F282F672FC3
:1028E0008A819B810E94A40A8A819B8101969B8395
:1028F0008A83D1CF809142010E94220A092FF09051
:10290000B104E090B2042091B30410E4129F112DA1
:102910001124E82FF0E0FB83EA833A81301708F0B6
:10292000BDCFEA81FB81E65CFD4F80819091430140
:102930008923E9F0EA81FB81EE0FFF1FE256FE4F8B
:1029400060A9169FB001112495E0759567959A9539
:10295000E1F78091B004680F7F2D8E2D0E948A0BC5
:10296000462F282F672F8A819B810E94A40A2A81E3
:102970003B812F5F3F4F3B832A83CFCF8091420122
:102980000E94220A8983192F0091B0048091B1041A
:102990008A83F090B2046091B3046695669566955B
:1029A0008091A7049091A8040E94720B0E943E0B94
:1029B000805887FD8195880F282F3F2D239F212D3B
:1029C0001124822F602F7A810E948A0B062FF72E06
:1029D000E82E9981892F90E09B838A83FA81F117F1
:1029E00008F0EACEEA81FB81E65CFD4F80819091A0
:1029F0004301892339F02E2D402F6F2D8A819B8131
:102A00000E94A40AEA81FB813196FB83EA83E6CF28
:102A10008BE79AE00E94E60C9091420121E0290F99
:102A200020934201811171C182E080934501809120
:102A3000440181116AC1772009F473C1892F0E9472
:102A4000220A5ACE81E59AE0E5CF83E29BE00E941C
:102A5000590CE2CF87E09BE0FACF8FE49AE0DACF1F
:102A600086E39AE0D7CF83EF9AE0F1CF80914201DD
:102A70000E94220A192F90914401911120C0609167
:102A8000B30420E1620F08F46FEF8091A7049091E6
:102A9000A8040E94720B6AE070E00E945630892BF5
:102AA00009F08ACE0E945D0B26E3829FC0011124AB
:102AB00060914301892F90E00E941E0C7DCEE82F8B
:102AC000F0E0FB83EA83E12EF12C8A819B818E1555
:102AD0009F050CF071CE609143018A819B810E9419
:102AE0001E0C2A813B812F5F3F4F3B832A83EDCF12
:102AF000809142010E94220A8983192FF090B1042B
:102B00000091B2049091B0049A836091B3046695E9
:102B1000669566958091A7049091A8040E94720B17
:102B20000E943E0B805887FD8195880F682F2CE00E
:102B3000629F612D1124EA816E0F7F2D802F0E94EC
:102B40008A0B062FF72EE82E3981232F30E03B83A6
:102B50002A839A81911708F02FCEEA81FB81E65CE7
:102B6000FD4F808190914301892339F02E2D402F14
:102B70006F2D8A819B810E94A40A8A819B81019684
:102B80009B838A83E6CF80914401882329F040E02B
:102B900060E080E00E94A70A809142010E94220A20
:102BA000392E4091A7045091A8046091A904709116
:102BB000AA0480918D0390918E03A0918F03B09110
:102BC000900384179507A607B70708F08AC060919D
:102BD000B0047091B1048091B2040E948A0B662EF9
:102BE000572E482E05E713E0EEE9F1E0FB83EA8378
:102BF000AA80BB804501780192E0998302C0F1E090
:102C0000F983F70121917F01F40181914F0190E057
:102C1000F501C580D12C222309F465C0242D462D51
:102C2000652D0E94A40A242D462D652DC6010E9403
:102C3000A40AF701808131978083F1E0AF1AB108CF
:102C400029812130E1F6EA81FB81828190E0E380F5
:102C5000F12CF8012281222309F44EC0242D462DA7
:102C6000652D0E94A40A242D462D652DC7010E94C2
:102C7000A40A0E945D0B837091E009F090E0F801D6
:102C800092830D5F1F4F2A813B812A5F3F4F3B8319
:102C90002A832E5C314009F0ABCF2091B30430E1A0
:102CA000230F08F42FEF60E1822F90E00E94720B57
:102CB000BC0188EB9BE00E9456308091A704909164
:102CC000A804A091A904B091AA04860F971FA11D82
:102CD000B11D80938D0390938E03A0938F03B093C7
:102CE0009003832DDCCD20E040E060E00E94A40A48
:102CF00020E040E060E09ACF20E040E060E00E9409
:102D0000A40A20E040E060E0B1CF772009F4F4CCE1
:102D100095CE70924001832F837080933F010E9473
:102D2000A81283E0F8CC8091AE04882351F048E0EB
:102D300050E067E170E08FEA94E00E942631109243
:102D4000AE04C090A704D090A804E090A904F0902D
:102D5000AA04809147048823C1F02FB7F8946091AA
:102D600052047091530480915404909155042FBFE4
:102D70006C197D098E099F096031710581059105E6
:102D800008F4BACC10924501B7CC0E94420DF0CFA6
:102D90009091500492FB222720F9281779F080FBAC
:102DA00092F99093500460914F047091500484E024
:102DB00090E00E94543182E00E9483100895A4E0C4
:102DC000B0E0E5EEF6E10C947930409115035091B6
:102DD000160360911703709118032FB7F894809130
:102DE000520490915304A0915404B09155042FBF04
:102DF000841B950BA60BB70B11E084369105A1053A
:102E0000B10570F10E94420D6E5F7F4F8F4F9F4F53
:102E100069837A838B839C838091190190911A0135
:102E200081509D4F4091180150E04530510510F000
:102E300044E050E0BE016F5F7F4F0E94FF3083E0AF
:102E400090E00E94E02F182F882351F00E945E0826
:102E500060931503709316038093170390931803E0
:102E6000812F2496E3E00C949530EF92FF921F930C
:102E7000CF93DF9300D000D00F92CDB7DEB77B01A8
:102E800090E080E00E94E02F182F882309F46DC0A5
:102E90004091030150E04115510511F041E050E02F
:102EA000609104017091050161507D4FCE0105963E
:102EB0000E94FF304091F7025091F8026091F902B0
:102EC0007091FA022FB7F8948091520490915304B4
:102ED000A0915404B09155042FBF841B950BA60BF1
:102EE000B70B84369105A105B10538F480E093E075
:102EF0000E94D7069D818917C1F181E090E00E9470
:102F0000E02F882309F458C040910B0150E0453070
:102F1000510510F044E050E060910C0170910D01FA
:102F200061507D4FCE0101960E94FF3080E093E01A
:102F30000E94D7069D8189133FC00E945E0860935E
:102F4000F7027093F8028093F9029093FA02898154
:102F50009A81AB81BC818093F3029093F402A09399
:102F6000F502B093F60211E00EC08091000390913B
:102F70000103A0910203B091030389839A83AB8379
:102F8000BC831111E4CF8091F3029091F402A091DF
:102F9000F502B091F602F70180839183A283B38397
:102FA000812F0F900F900F900F900F90DF91CF9186
:102FB0001F91FF90EF90089510E0E5CF4F925F9240
:102FC0006F927F928F929F92AF92BF92EF92FF92F9
:102FD0000F931F93CF93DF937B01FB0140805180C0
:102FE000628073809FB7F89480905204909053044D
:102FF000A0905404B09055049FBF84189508A6086B
:10300000B708F4E68F169104A104B10418F4C1E0E6
:10301000442329F1C82F880FDD0BFE0183E0EE0F5A
:10302000FF1F8A95E1F7E050FF4F81819281815027
:103030009D4F408150E00417150708F4A801B9011D
:103040000E94FF30CE010E94E02FC82F882339F064
:103050000E945E08F70160837183828393838C2FC3
:10306000DF91CF911F910F91FF90EF90BF90AF90A4
:103070009F908F907F906F905F904F900895A9E000
:10308000B0E0E5E4F8E10C94783088E0EFEAF4E0B1
:10309000DE01119601900D928A95E1F7198649E0BB
:1030A00050E06CE073E0CE0101960E94F23041E006
:1030B000892B09F440E009E010E09E012F5F3F4FAB
:1030C00069E173E084E00E94DE172996E4E00C9445
:1030D00094300F931F93CF93DF93EC0144E050E0C3
:1030E00064E073E00E94F23041E0892B09F440E093
:1030F00004E010E09E016BEF72E082E00E94DE17B8
:10310000DF91CF911F910F9108951F920F920FB6EB
:103110000F9211242F933F934F935F936F937F935D
:103120008F939F93AF93BF93EF93FF938091E100B1
:1031300082FF09C08091E20082FF05C08091E1001A
:103140008B7F8093E1008091DA0080FF24C0809122
:10315000D80080FF20C08091DA008E7F8093DA0053
:103160008091D90080FF9DC080E189BD82E189BD49
:1031700009B400FEFDCF81E0809363048091560482
:10318000811109C00E9401070E94A2078091E200FC
:1031900084608093E2008091E10080FF17C08091FD
:1031A000E20080FF13C08091E2008E7F8093E200F6
:1031B0008091E20080618093E2008091D80080627B
:1031C0008093D80019BC85E0809363048091E1006E
:1031D00084FF2BC08091E20084FF27C080E189BD7D
:1031E00082E189BD89B5982F917080FFFBCF8091D6
:1031F000D8008F7D8093D8008091E1008F7E8093EE
:10320000E1008091E2008F7E8093E2008091E200F5
:1032100081608093E20080916404882309F447C0B0
:1032200084E080936304809163048091E10083FFD4
:1032300027C08091E20083FF23C08091E100877F57
:103240008093E10082E08093630410926404809193
:10325000E1008E7F8093E1008091E2008E7F809379
:10326000E2008091E20080618093E20042E060E051
:1032700080E00E9470078091F00088608093F000E9
:10328000FF91EF91BF91AF919F918F917F916F913E
:103290005F914F913F912F910F900FBE0F901F9014
:1032A000189519BC109263041092560474CF809143
:1032B000E30087FD93E090936304B5CF78941F9269
:1032C0001FB61F9211248F939F93AF93BF9380914A
:1032D000520490915304A0915404B0915504019666
:1032E000A11DB11D8093520490935304A0935404E4
:1032F000B0935504BF91AF919F918F911F901FBEC6
:103300001F9018959C014FB7F894809152049091AA
:103310005304A0915404B09155044FBF821B930BEA
:1033200008952FB7F8948091520490915304A0917E
:103330005404B09155042FBF08950E9491199C0127
:103340009091430480914404982B21F030934004E1
:1033500020933F049091450480914604982B21F0DE
:1033600030933E0420933D04E0914B04F0914C04D3
:10337000309749F082E0809341040680F781E02D88
:1033800081E494E0099508951092E602809141014C
:10339000882339F180914F0487FF23C0ECE7F2E0E6
:1033A0008EE1DF011D928A95E9F790E080E00E94AE
:1033B000EE0890E080E00E94C9081092BD020E94D1
:1033C000BD1186E0E1E4F4E0DF011D928A95E9F7A2
:1033D00010923A0410923B0410923C040E949D19F2
:1033E0000895E4E7F2E086E0DCCFAAE2B0E0EBEF9C
:1033F000F9E10C94793085E694E02091F100FC012C
:103400002193CF01F4E08D369F07B9F780916604D0
:10341000833009F470C0B8F4813009F447C08230B9
:1034200009F4B1C08091E80083FF7EC280916504F9
:10343000909166049A3008F077C2E92FF0E0E459E1
:10344000FE4C0C94E3308A3009F48CC08B3009F4C4
:103450006FC0893039F780916504813219F7809106
:10346000690490916A040297E8F68091E800877FEA
:103470008093E8008091E80082FF38C09091F300CB
:103480008091F200029731F48091F100813011F0C7
:10349000863021F48091F100809358048091E800F7
:1034A0008B778093E8000E945107BCCF8091650420
:1034B000813A09F0B7CF8091E800877F8093E800D8
:1034C0008091690490916A04892B61F468E089E530
:1034D00094E070E00E94FD078091E8008B77809374
:1034E000E800A0CF60E090E080E0F3CF809163043B
:1034F0008111C0CF97CF80916504813A09F092CFB6
:103500008091690490916A04892B09F08BCF809196
:10351000E800877F8093E8008091E80080FFFCCF7F
:10352000809141018093F1008091E8008E77B9CFBE
:1035300080916504813209F075CF80916904909182
:103540006A04892B09F06ECF8091E800877F809311
:10355000E8000E94510780916704809341010E9416
:10356000C41960CF80916504813209F05BCF8091EE
:10357000E800877F8093E8000E94510780916804EB
:10358000809357044FCF80916504813A09F04ACF68
:103590008091E800877F8093E8008091E80080FFB9
:1035A000FCCF80915704BECF803899F0823809F063
:1035B000BBC1809169048F70873008F0B5C18093DA
:1035C000E9008091EB0085FB882780F91092E900E3
:1035D00006C0809161049091620491118260909183
:1035E000E800977F9093E8008093F1001092F1003B
:1035F0008091E8008E7794C1882309F482C18230DB
:1036000009F092C180916704811185C1809169049C
:103610008F702FEF280F263008F086C18093E900C5
:103620002091EB0020FF77C1933031F48091EB00C3
:1036300080628093EB006FC19091EB00906190935A
:10364000EB0021E030E001C0220F8A95EAF72093D9
:10365000EA001092EA008091EB008860EACF8111C5
:1036600063C1109167041F778091E3008078812BFC
:103670008093E3008091E800877F8093E8000E94B8
:1036800051078091E80080FFFCCF8091E3008068C3
:103690008093E30082E0111183E08093630444C1CE
:1036A0008058823008F040C180916704909168048E
:1036B0008C3D23E09207A1F583E08A838AE2898327
:1036C0004FB7F894DE01139620E03EE051E2E32F7D
:1036D000F0E050935700E49120FF03C0E295EF70B3
:1036E0003F5FEF708E2F90E0EA30C0F0C7968D9369
:1036F0009D932F5F243159F74FBF8091E800877F5A
:103700008093E8006AE270E0CE0101960E94FD0716
:103710008091E8008B778093E80006C1C096E7CFE0
:103720004091690450916A04292F332723303105D1
:1037300009F444C078F52130310509F46FC08BE3FA
:1037400090E0E9E1F7E02230310509F0EDC0209189
:10375000E800277F2093E80020916B0430916C04EF
:103760008217930708F49C0140E02115310509F008
:1037700064C0411162C08091E80082FDC9CF809190
:103780006304882329F2853019F28091E80083FFD1
:10379000F2CFBECF21323105A9F12232310509F035
:1037A000C3C04115510509F443C04130510509F02A
:1037B000BBC086EB90E0EFE1F6E0C9CF99278130FE
:1037C0009105C1F0009759F0029709F0ADC0E6E607
:1037D000F7E0E4918E2F90E0E6E6F7E007C0E6E838
:1037E000F7E0E4918E2F90E0E6E8F7E0009709F427
:1037F0009BC0ADCFE4E7F7E0E4918E2F90E0E4E7E3
:10380000F7E0F4CF4115510571F04130510509F051
:103810008BC089E090E0E4E4F7E099CF82E190E0AA
:10382000E4E5F7E094CF89E090E0EBE2F7E08FCFBA
:1038300084E490E0E5EDF6E08ACF8091630488238C
:1038400009F466CF853009F463CF8091E80083FDE9
:103850005FCF8091E80082FD8ECF8091E80080FFED
:1038600084CF9091F3008091F2002115310519F079
:103870008830910550F041E0089709F040E08091D0
:10388000E8008E778093E80070CF44914093F10078
:103890003196215031090196E8CF803809F044C0B3
:1038A0008091E800877F8093E80080916404809392
:1038B000F1009ECE811138C0109167041230A0F53E
:1038C0008091E800877F8093E800109364040E9451
:1038D0005107112311F084E005C08091E30087FDBA
:1038E000FACF81E08093630442E061EC81E00E94C2
:1038F000700742E261EC82E00E94700780916304ED
:1039000013C080916704813079F481E0933009F02D
:1039100080E0809362041092E9008091E800877F44
:103920008093E8000E9451078091E80083FF0AC05D
:103930008091E800877F8093E8008091EB008062AF
:103940008093EB00AA96E3E00C9495301F920F92BF
:103950000FB60F9211242F933F934F935F936F9362
:103960007F938F939F93AF93BF93CF93DF93EF9307
:10397000FF93D091E900DF708091EC00C82FC170F7
:1039800080FDC0E81092E9008091F000877F80936D
:10399000F00078940E94F5191092E9008091F000EF
:1039A00088608093F000CD2BCF70C093E900FF9129
:1039B000EF91DF91CF91BF91AF919F918F917F91C7
:1039C0006F915F914F913F912F910F900FBE0F908C
:1039D0001F9018950E94C4192FEF84E39CE021509A
:1039E00080409040E1F700C0000088E19CE00FB605
:1039F000F894A895809360000FBE90936000FFCF6D
:103A0000409143049091450420914604662309F4B3
:103A100069C0942B922B20914404922B31F098E0B2
:103A200090933A0491E090933B048D3C41F40E94C2
:103A300046098195809344040E949D1908958E3C07
:103A400019F40E944609F6CF8F3C31F40E944609D2
:103A5000819580934304F0CF803D19F40E9446097C
:103A6000F8CF893D29F40E94240980934504E4CFCE
:103A70008A3D21F40E9424098195F7CF8B3D31F4D2
:103A80000E942409819580934604D6CF8C3D19F479
:103A90000E942409F8CF9FE2980F983070F4815D5E
:103AA000990B21E030E001C0220F8A95EAF780915E
:103AB0004204822B80934204BFCF8D3D31F480912C
:103AC0003C04816080933C04B7CF8E3D21F480910B
:103AD0003C048260F7CF8F3D09F0AECF80913C046B
:103AE0008460F0CF8D3C59F48091440487FF0DC071
:103AF0001092440441110BC010923A0408C08E3C4D
:103B000081F48091440418169CF3442381F0809141
:103B1000450490914604892B09F08ECF10923B0406
:103B20008BCF8F3C49F447FFF0CF10924304809134
:103B300044048111ECCFE0CF803D19F41416ACF3AE
:103B4000E4CF893D29F4191604F710924504DDCF1E
:103B50008A3D19F497FFD9CFF8CF8B3D29F427FF81
:103B6000D4CF10924604D1CF8C3D19F41216CCF369
:103B7000CCCF9FE2980F983090F4815D990B21E0B3
:103B800030E0B90102C0660F771F8A95E2F7CB01DA
:103B9000809590914204892380934204B6CF8D3D55
:103BA00031F480913C048E7F80933C04AECF8E3DF7
:103BB00021F480913C048D7FF7CF8F3D09F0A5CF94
:103BC00080913C048B7FF0CF882381F19CEF980F8C
:103BD000913A28F40E946A080E94BD11089590E26B
:103BE000980F983050F4877091E001C0990F8A9532
:103BF000EAF7892F0E948A0FEFCF9BE5980F933049
:103C000028F490E080E00E94EE08089598E5980F6F
:103C10009B3128F490E080E00E94C908089593E366
:103C2000980F933118F460E00E94001D0895CF931F
:103C3000C82F8823B1F18CEF8C0F813AA0F58091C9
:103C40004101882301F180914F0487FF1CC0EC2FB4
:103C5000E695E695E695F0E0E658FD4F828190E026
:103C60004C2F477021E030E002C0220F331F4A95ED
:103C7000E2F782239323892B79F08C2F0E946A0824
:103C80000E94BD1109C0E4E7F2E08191C817A9F3D1
:103C900082E0EA37F807C9F78C2F0E9495080E9446
:103CA000BD11CF91089580E28C0F883068F4C77001
:103CB00021E030E001C0220FCA95EAF78091E602C8
:103CC000822B8093E602EBCFEBE5EC0FE33040F480
:103CD000F0E0E75BFE4F808190E00E94EE08E1CFCC
:103CE000E8E5EC0FEB3150F4F0E0EE0FFF1FE45B82
:103CF000FE4F808191810E94C908D3CF83E38C0F4E
:103D0000833178F661E08C2F0E94001DCACF0F939B
:103D10001F93CF93DF93C62FD42F022FFC018581F1
:103D20008823A9F06093AD040E9491199093AC048C
:103D30008093AB04C77081E001C0880FCA95EAF791
:103D40000E941612DF91CF911F910F9108958091DB
:103D5000AD04681335C08091AB049091AC040E940F
:103D60008219883C910560F510E21D0FCD17B9F05E
:103D700080E28C0F883040F4C77081E001C0880F6A
:103D8000CA95EAF70E940F12183048F481E09D2F7F
:103D9000977001C0880F9A95EAF70E941612802F3B
:103DA0000E94171E802F0E94E41D183058F6D7700D
:103DB00081E001C0880FDA95EAF70E940F12C2CFA6
:103DC000C77081E001C0880FCA95EAF7F6CFB0E06E
:103DD000A0E0EDEEFEE10C9472308C01FC018481D8
:103DE000882309F467C021E0408151816281738199
:103DF00095810E94D210EC01F8019581992309F474
:103E000046C4818180934B03808180934A0380E282
:103E100080933501D0934903C09348039E013052EB
:103E20002115304238F4F8018681807F09F45EC0A4
:103E3000FE010AC09E01305421153041C8F4F8013A
:103E40008681807FFE0109F0FF27ED33F10528F41C
:103E5000E455FF4FE491E0933501FE01E851FC4742
:103E6000E730F10508F042C0EA58FE4C0C94E3300C
:103E70009E013A9521153F41D8F29E01205A3245C4
:103E80002032310550F3FE01E0CF26E241EE61EE33
:103E9000C8010E94871E8091BB02877059F0F8010B
:103EA0008581882339F08091500482FF03C082E02D
:103EB0000E948310CDB7DEB7EAE00C948E3027E283
:103EC00045EE65EEE5CF26E241EE60EEE1CF27E27A
:103ED00045EE64EEDDCF26E241EE62EED9CF27E279
:103EE00045EE66EED5CF28E241E0EBCF1092AD046F
:103EF0009E0130572332310508F0E3C384E090E09F
:103F00000E9420319093500480934F04FE01E150B1
:103F1000F047E232F10520F4E358FE4C0C94E33014
:103F200080914F04816080934F0495C0809150042C
:103F30008860809350048FC080914F048260F3CFDB
:103F400080914F048460EFCF80914F048860EBCF65
:103F5000809150048160EDCF809150048260E9CF60
:103F600080914F048061DFCF80914F048062DBCF6E
:103F700080914F048064D7CF0E94C41980914F0470
:103F80008068D1CF80914F048C60CDCF8091500458
:103F90008360CFCF80914F048E7FC5CF8091500436
:103FA000877FC7CF80914F048D7FBDCF80914F0415
:103FB0008B7FB9CF80914F04877FB5CF809150041C
:103FC0008E7FB7CF809150048D7FB3CF80914F0407
:103FD0008F7EA9CF80914F048F7DA5CF80914F0414
:103FE0008F7BA1CF0E94C41980914F048F779BCF04
:103FF00080914F04837F97CF809150048C7F99CF1D
:1040000080914F0482FB992790F921E0922790FB41
:1040100082F990FB83F987CF80915004982F909577
:1040200091708E7F892B90FB81F983CF90914F0403
:10403000892F8F7B96FF806476CF0E94C419909160
:104040004F04892F97FB87F980586DCF61E08EE090
:1040500090E00E94363160914F047091500484E0EA
:1040600090E00E9454310E94C41915CF60E0EFCF58
:1040700090914F04892F8F7E94FF806154CF90914F
:104080004F04892F8E7F90FF81604DCF9091500417
:10409000892F877F93FF88604CCF85E322C380916F
:1040A0009A02811104C089E20E946A081CC385E358
:1040B000FBCF992309F4F7C2C3303CE7D30709F4D7
:1040C000C0C008F0A3C0C1159CE7D90709F4ACC073
:1040D000C130DC4709F4BBC0F8018581C081D181C2
:1040E000882309F4C2C0CE010E94C20FF82E682FA7
:1040F000CE010E943610BE018F2D0E944D0E0E94EF
:104100006C0ED82FC92FA82EF801C580B680B294A6
:104110003FE0B3228091BB02877009F1EC2CCC20E8
:10412000F9F0892F807F803469F080E28D0F88302C
:10413000B0F0892F807E803229F4F1E0FD1778F409
:10414000BB2069F08091500482FF09C082E00E9488
:1041500083108091BB028770EE24E3948111E12CDF
:10416000DC2ED2942FE0D2222BE02D1508F4E2C0F1
:10417000ED2DF0E0E156FE4C0C94E3308091AF045D
:1041800091E089278093AF04109245018091AE049D
:1041900081608093AE047FCE4DE05AE067E17AE023
:1041A0000E94740978CE47E15AE06DE07AE0F8CFDA
:1041B00049EF59E063E07AE0F3CF43E05AE069EF7A
:1041C00079E0EECF4FED59E06CEE79E0E9CF4CEEBF
:1041D00059E06FED79E0E4CF45EC59E062ED79E02C
:1041E000DFCF42ED59E065EC79E0DACF49EA59E0FA
:1041F00067EB79E0D5CF47EB59E069EA79E0D0CFBA
:1042000081E00E949F0647CE85E0FBCFCB35FCE7DF
:10421000DF0749F1CC352CE7D207D9F0CA35DC47A6
:1042200009F05ACF81E01CC00E94C4198FEF94E3BB
:10423000ECE081509040E040E1F700C000000E94B7
:1042400084126FEF7FEF90E080E00E9454310E9473
:10425000EA1C8091500482FB882780F991E089272D
:104260000E94C81639CF80E0FBCFCE010E94031018
:10427000F82E41CF3C2F3F70F32EC07F19F0F294FF
:1042800090EFF922CC20B9F0FF2069F080E28D0F89
:10429000883010F0A11009C08091E602F82AF0924F
:1042A000E6020E94BD118D2F43C08091BD02F82A05
:1042B000F092BD02F6CF8D2F0E94E41DFF20D1F1B8
:1042C000D05ED83010F0A11004C08F2D0E948A0F4C
:1042D00006C0F0948091BD02F822F092BD020E94C7
:1042E000BD1128C08C2F8F70F82EC07FC03219F0FE
:1042F000F29480EFF822AA2059F091E0A91609F46F
:1043000078C0CC2009F484C0BB2009F446C0CBCFD0
:104310008091500482FD3DC0CC20A9F1FF2039F0EE
:104320008091E602F82AF092E6020E94BD1180E038
:104330000E94171EED2DE850FF0B349710F40E94D9
:104340001309EE20A9F08091BB0280FD11C0F80195
:1043500015828695869586950E949A10C8010E94BE
:10436000E71E8091BB028695869586950E94711006
:1043700020E0F801408151816281738184819581BF
:104380000E94D21097CD80E00E94E41DFF2091F2A0
:104390009CCFCC20A1F0B11004C08F2D0E9416122A
:1043A000C9CFE1E0BE12C6CF8091BC029F2D9823F9
:1043B000F91609F4BFCFF82AF092BC02BBCFB110B6
:1043C000B9CF8F2D0E940F129091BC028F2D89239F
:1043D00029F08F2D809589238093BC0280919B02C8
:1043E0009F2D982309F4A6CFF094F822F0929B0217
:1043F000A1CFCC2029F0F5E0FB1508F49BCFCDCF61
:1044000024E02B1508F496CF8F2D0E940F1292CF27
:10441000BB20D1F339E3A31209C08FEF97EEE3E09D
:1044200081509040E040E1F700C000008D2F0E94D5
:10443000E41D80CF8C2F86958695837069F081303E
:1044400009F078CF8D2F9C2F9370C11002C080E0AF
:1044500090E00E94C9086ECF8D2F9C2F9370C110E1
:1044600002C080E090E00E94EE0864CF6C2D8D2F9A
:104470000E94001D5FCF8C2F837009F03FC0C110D8
:1044800059CF4D2F429546954770440F440F2D2F1D
:104490002F7030E0042E02C0220F331F0A94E2F77F
:1044A00090E080E0D4FF09C08FE090E002C0880F68
:1044B000991F4A95E2F780959095C695C695C37069
:1044C000C23099F078F440912C0350912D03C13003
:1044D00039F0822B932B842395230E94AA102ACF94
:1044E000242B352B822B932BF8CF822B932B2091CF
:1044F0002C0330912D0382279327EFCF8695CC2074
:1045000011F08C2F8170882309F414CF4D2F429520
:1045100046954770440F440F2D2F2F7030E0042E26
:1045200002C0220F331F0A94E2F790E080E0D4FF2C
:1045300009C08FE090E002C0880F991F4A95E2F70A
:1045400080959095C695C695C370C23099F078F461
:1045500040913F0350914003C13039F0822B932B9F
:10456000842395230E946C10E5CE242B352B822BBF
:10457000932BF8CF822B932B20913F033091400354
:1045800082279327EFCFCF70CC2029F08C2F0E9469
:104590009A108D2F03CF8D2F0E940F128C2F0E9407
:1045A0007110C8CE8D2FF2EFAF1699F1FA1570F099
:1045B00020EFA216D1F031EFA31691F0CC2009F430
:1045C00056C0B11070CE8C2F8F7127C093EFA916F3
:1045D00039F1E4EFAE12F2CF9091500492FD2EC06B
:1045E0008C2F8F71CC20D9F218C0CC2069F0F4E068
:1045F000FB1508F49FCECF7181E090E002C0880FD8
:10460000991FCA95E2F7B8CF25E02B1508F492CE92
:10461000F2CF8C2F8F71C110C2CF0E949A108ACE18
:1046200090E080E0CC2009F49DCFCF7181E090E054
:1046300002C0880F991FCA95E2F794CFCC2061F091
:104640008C2F8F7192FFE9CF98E0899F9001112400
:1046500023602093BB02E1CF81E00E948310E1E060
:10466000EB1508F067CE82E00E94831063CEBB207A
:1046700059F0893309F0DACEFFEF27EE33E0F1503D
:1046800020403040E1F7D0CE8C2F8F7188CFFE01D3
:10469000E851FC47E730F10508F4E6CBC6312CE7DA
:1046A000D20709F4FCCC8091E6028272FE01E0524E
:1046B000F847E531F10508F00FCDE555FE4C0C94B7
:1046C000E330C631FCE7DF0709F0F3CC8091E60266
:1046D0008A7A91E009F490E090939A028111DDCCFE
:1046E00089E20E9495080E94BD11D5CBCF93DF933C
:1046F0008091BA02807F09F04DC08091B902882371
:1047000009F448C0E091A60450916D04C091B5022F
:10471000D091B4026091B6027091B70247E05E1783
:10472000C9F18E2F90E0E49FF0011124E259FB4F74
:104730002481222391F1489FF001499FF00D11241B
:10474000DF01A259BB4F11962C9111972C1325C054
:104750002C912D1322C015962C91159721111DC057
:1047600012962D913C91261B370B283C3105A8F45D
:104770008091BA028F7080618093BA02EC58FB4F2F
:1047800080818F708061808384EB92E00E94E71EBD
:104790000E94B80FDF91CF910895FC013196E77028
:1047A000BECFA4E1B0E0E7EDF3E20C9470308C01F1
:1047B00086E0F801DE011F9601900D928A95E1F7DF
:1047C000F8018481E58094EBA92E92E0B92E9091B6
:1047D000B802911128C0882319F1EE20F1F0C80128
:1047E0000E94AF10F82E8823C1F087E0F801D501B0
:1047F00001900D928A95E1F78091B802813031F4F1
:104800008091B4029091B5020E94F60F0E94762327
:104810008F2D6496ECE00C948C30C8010E94E71E4A
:10482000FF24F394F5CFD080C18082809380F090F4
:10483000B9022091B6023091B702A401421B530B7A
:10484000FF2009F4D9C0483C510508F092C08823E4
:10485000F9F29091B5028091BA02282F207F09F0D9
:1048600056C0C91214C09091B402D91210C0E11000
:1048700048C08F7080618093BA0284EB92E00E94FE
:10488000E71E8091BA02F8018683F12CC1CFE110B6
:1048900038C06C2D8D2D0E94B8066C2D8D2D0E9478
:1048A000B806E82E8111F1CFDF86C88A8F859889F6
:1048B0000E94F60F292F22952F70243058F49F70F4
:1048C000223088F0992399F0F8019681907F79F44D
:1048D000FE2C9ECF2A5F2F70223068F0C8010E9404
:1048E000E71EEF2CF5CF992311F0882389F3805E22
:1048F000883070F3F3CF803F58F3815F833070F7D7
:10490000E7CF8091BA0281608093BA02BECFC9120C
:1049100007C09091B402D91203C0EE2009F48DC0F3
:10492000C8010E94AF10882309F477CFEE2009F464
:1049300074CF8091BA02803288F02091B402309115
:10494000B502398728879B868A869091B8029C8712
:104950001D868E87CE0108960E94E71E87E0F8012B
:10496000A4EBB2E001900D928A95E1F70E947623C4
:1049700057CF9091BA02292F207F51F484EB92E017
:104980000E94E71E87E0F50111928A95E9F77DCF35
:10499000882309F43DCF8091B5028C1110C080911D
:1049A000B402D8120CC0E1100AC09683C8010E945C
:1049B000E71E87E0F50111928A95E9F729CFC80132
:1049C0000E94AF10882309F428CFEE2009F425CFE8
:1049D0008091BA02803210F22091B4023091B50277
:1049E0003A8329839C828B829091B8029D831E8298
:1049F0008F83CE010196B0CF483C5105D0F6882375
:104A000009F40ECFFE2CEE2009F407CF8091B502F9
:104A10008C1120C08091B402D8121CC08091BA02BF
:104A200080FD0FC0982F907F61F08683903F31F01A
:104A3000982F907F905F8F70892B8683C8010E948A
:104A4000E71E87E0F801A4EBB2E001900D928A9591
:104A5000E1F7DECEC8010E94AF1081117FCF8091B7
:104A6000BA0281608093BA02C8010E94E71ED0CECC
:104A7000ABE1B0E0EEE3F5E20C9478304E8B5F8B67
:104A8000688F798F8A8F9B8F192F91111092BD0299
:104A90001D8A86E0FE017696DE011F9601900D923A
:104AA0008A95E1F70A8D002341F021E04F8558896E
:104AB00069897A89C8010E94D2100B8B1C8B87E010
:104AC000FE013F96DE01189601900D928A95E1F75E
:104AD000CE0108960E94D12381112AC087E0FE01F1
:104AE0003896DE01119601900D928A95E1F78C853A
:104AF0008823F1F020916D0430E0C90101968770A0
:104B000099274091A60448171906E9F097E0929F6B
:104B1000D001939FB00D1124A259BB4FFE013196D5
:104B200001900D929A95E1F780936D040E94B80F61
:104B300017E08091A60490916D04891312C06B96C2
:104B4000E4E00C9494300E94C41910926D04109209
:104B5000A60487E0E4EBF2E0DF011D928A95E9F715
:104B6000E7CF819FC001112482599B4F0E94D1231E
:104B7000882329F38091A60490E0019687709927F5
:104B80008093A604D6CFACE0B0E0E9ECF5E20C945B
:104B90006F308E010F5F1F4F88E0D8011D928A95FC
:104BA000E9F784E8C82E81E0D82EF12CE12CAA2464
:104BB000A394B12C2EE8822E21E0922EF601819151
:104BC0006F018F3F09F442C0F894E82FE295EF702F
:104BD000F0E021A18F70A50102C0440F551F8A95F6
:104BE000E2F7CA01922F982B91A392A18095892375
:104BF00082A3789400C0E8E8F1E0712C31E02191C3
:104C00002F3F09F4A3C0A22FA295AF70B0E09096F9
:104C10008C9190E02F7002C0959587952A95E2F7C8
:104C200080FD94C0832F782A330F8E169F0639F7A4
:104C3000F601319780818F3F11F00E942B0D50EAD1
:104C40005A95F1F7F801EE0DFF1D70828FEFE81A0B
:104C5000F80A94E0E916F10409F0B0CF48E050E01A
:104C6000B80182E293E00E94F230009741F028E020
:104C7000F801A2E2B3E001900D922A95E1F70091CC
:104C80002B0310E0025D1C4F892B09F461C081E009
:104C90008093EB020E9491199093EA028093E902BB
:104CA000F12CE0904704EE2009F4ACC019861A8676
:104CB0001B861C8680911D038A3008F06DC045E379
:104CC00057E1BE01675F7F4FC8010E94D41288235D
:104CD00009F487C049E658E1BE01675F7F4FC8010C
:104CE0000E94D412882309F47CC04FED56E1BE0126
:104CF000675F7F4FC8010E94D412882309F471C0F6
:104D00004FE358E1BE01675F7F4FC8010E94D41294
:104D1000882309F466C010921D0380912A0390E055
:104D200044E050E0BE01675F7F4F825D9C4F0E9470
:104D3000F23021E02093F202892B09F044C0E12CEB
:104D40008E2D8F292C96EDE00C948B3080E06BCF6C
:104D5000F090EB02FF2009F4A3CF8091E90290913B
:104D6000EA020E948219059708F49ACF44E050E0C5
:104D700062E273E0C8010E94F230892B59F084E0AE
:104D8000E2E2F3E0D80101900D928A95E1F71092EA
:104D9000EB0287CFF12CFBCF8091EC029091ED02DA
:104DA0000E948219843F914008F089CF8091F202DD
:104DB000882329F2FE01399684E0DF011D928A954D
:104DC000E9F71092F202E0912A03F0E0E25DFC4F75
:104DD00089859A85AB85BC8580839183A283B383C3
:104DE000AFCF80911D038F3F31F08F5F80931D0304
:104DF0008A3008F492CF0E9491199093ED0280932B
:104E0000EC02D4CFC0902A03D12CF601E25DFC4F16
:104E10006F0184E0F801A0E0B3E001900D928A9563
:104E2000E1F780E093E00E94D7068093FF0284E0E0
:104E3000E4E0F3E0D60101900D928A95E1F78090CD
:104E4000080390900903A0900A03B0900B0380918F
:104E5000EE029091EF02A091F002B091F10288165B
:104E60009906AA06BB06B1F08092EE029092EF027C
:104E7000A092F002B092F1020E945E08861A970A90
:104E8000A80AB90A80921E0390921F03A0922003E1
:104E9000B092210388E0ECE0F3E0AFEAB4E00190E7
:104EA0000D928A95E1F74CCFA6E0B0E0EAE5F7E293
:104EB0000C9478300E9491198C018091E7029091B6
:104EC000E8028017910781F019821A820E949119D5
:104ED000682F49815A81792F80E090E00E9438251F
:104EE0001093E8020093E7022696E4E00C949430D5
:104EF0001F921FB61F9211248F939F93AF93BF935E
:104F000080915104811113C08091520490915304F7
:104F1000A0915404B09155044196A11DB11D8093F8
:104F2000520490935304A0935404B0935504BF913A
:104F3000AF919F918F911F901FBE1F901895CDB775
:104F4000DEB763970FB6F894DEBF0FBECDBF85B74F
:104F5000806885BF85B7806885BF84B7877F84BF39
:104F60000FB6F894A89580916000886180936000E6
:104F7000109260000FBE80E890E00FB6F894809326
:104F80006100909361000FBE89E29DE090937102F1
:104F9000809370020E9401070E94A2078091E200A4
:104FA00084608093E2007894809163048823A1F068
:104FB0001091E9001F709091EC00892F817090FD95
:104FC00080E8182B1092E9008091E80083FD0E9490
:104FD000F5191F701093E90082E084BD93E095BD40
:104FE0009AEF97BD80936E0010921E0310921F03DC
:104FF000109220031092210388EC90E01091E300BE
:10500000111F1127111F61F4AFE3BCE91197F1F7EC
:1050100000C00000019791F70E94010710926304FD
:1050200010934704109348041093280111110E9413
:10503000F42E809128018091280194E0811190E064
:1050400090932B0384E0891B80932A0384E90E94B8
:105050002B0D86E60E942B0D87E90E942B0D86EC16
:105060000E942B0D08E811E0F80181918F018F3F1C
:1050700011F00E942B0DF1E00E381F07A9F788E010
:10508000EEE2F3E0DF01282F1D922A95E9F7E2E234
:10509000F3E0DF011D928A95E9F790E080E00E943D
:1050A0002031853E9E4F09F461C065EE7EEF90E0B1
:1050B00080E00E94543160E082E090E00E9436314E
:1050C00081E090E090932D0380932C0361E083E0D6
:1050D00090E00E94363160E074E184E090E00E944C
:1050E000543160E086E090E00E94363160E087E075
:1050F00090E00E94363140E050E0BA0188E090E054
:105100000E94483160E083E290E00E94363160E026
:105110008CE090E00E94363160E08DE090E00E94EB
:10512000363119821A821B821C821D821E821F82C6
:10513000188648E050E067E170E0CE0101960E94D9
:10514000263140E050E0BA018FE190E00E94483102
:1051500040E050E0BA018FE090E00E94483140E02A
:1051600050E0BA0183E190E00E94483182E090E093
:105170000E9418318093360384E090E00E94203131
:105180009093500480934F040E94C325EFEFF6E7FD
:1051900021E0E150F0402040E1F700C000000E9413
:1051A000C32580914804E4E08111E0E0F0E0E25D95
:1051B000FC4F808181FF08C06FEF7FEF90E080E0BF
:1051C0000E9454310E94841283E090E00E941831C2
:1051D00090E00E94AA100E94A50981E08093AE048D
:1051E00048E050E067E170E08FEA94E00E94083107
:1051F0001092AE048091AF048C7FF9F485E0809327
:10520000AF048091460190914701A091480180939D
:10521000B0049093B104A093B2048FE78093B304D9
:105220008FEF8093B40448E050E067E170E08FEACC
:1052300094E00E9426311092AE04809147048111BF
:10524000B4C082E080936C0380E88093B7040E942E
:10525000922D6BE070E08FED92E00E94071388239F
:10526000E9F180916C0365E070E081FDA0C08AEDFA
:1052700092E00E940713882389F16DE070E088ECCA
:1052800092E00E940713882349F10E945E08605A49
:1052900075418F4F9F4F6093340470933504809312
:1052A000360490933704EAEBF4E080E092E0DF010B
:1052B0009C011D9221503040E1F7F093C106E0932C
:1052C000C0068FEF9FEF9093B9048093B80481E0FC
:1052D000809339048093380410926D0380914704C1
:1052E000811102C00E94F72E89E291E090934C0454
:1052F00080934B042AE0C22ED12CE12CF12C80911A
:10530000630400E112E1853009F490C00E94C325D6
:1053100007E313E09EE2A92E93E0B92E2FE333E0DA
:10532000D501F80191918D912E173F0709F488C09E
:105330009817C1F340904704912C33243394D5013E
:105340008D905D01F80151908F01581429F1712C55
:10535000662463945824852D8621B1F04420A1F061
:1053600079869A860E9491199C878B873D8691E069
:10537000882D862109F490E09E8749855A856B85A2
:105380007C858D850E9438257394660CF6E07F122B
:10539000E2CFF80131978082939428E09212CFCF28
:1053A0000E94420D31E03F8750C080E04BCF85ED39
:1053B00092E05FCF80916304843041F10E945713E3
:1053C0000E9414131092510488E190E0A0E40FB6FB
:1053D000F894A895809360000FBEA093600083B7F7
:1053E000817F846083BF83B7816083BF7894889511
:1053F00083B78E7F83BF0FB6F894A8958091600025
:10540000886180936000109260000FBE80916204FA
:10541000882361F00E94C325EEE2F3E081918111BF
:105420000AC326E333E02E173F07C1F780916304D8
:10543000853009F4BFCF0E94C4190E94130966CFBA
:10544000981378CF0E9454271F860E94571380918B
:105450003904882309F4B3C080916E0390916F03DF
:105460000E948219C29708F48AC00E9491199093F1
:105470006F0380936E038AEB94E09093C106809350
:10548000C00680914704882309F4C2C18BE093E0F1
:105490000E94771120913F0330914003832F992779
:1054A000009751F19C0188E0A90104E056954795C9
:1054B0000A95E1F74115510511F08C5F9A01A90198
:1054C00056954795569547954115510511F08E5FB4
:1054D0009A0136952795232B09F08F5F813009F4C7
:1054E00051C1882359F0823009F44FC1833009F447
:1054F0004FC18AEE92E004C080E0D6CF83E093E013
:105500000E94B71180914B03805D0E94F71089E1E2
:1055100093E00E94771180914A03805D0E94F7100A
:1055200085E193E00E947711409048035090490331
:1055300080913301909134014816590609F02BC12E
:1055400080914703803209F026C1E1E4F3E08F0146
:1055500081918032E1F3F80101900020E9F79F0189
:105560002150310959010A151B0508F44BC183E18B
:1055700093E00E947711809135010E94F71080918D
:10558000B8049091B904892B09F06FC18091380457
:105590008823A9F00E945E0800913404109135041C
:1055A0002091360430913704601B710B820B930BF2
:1055B0006F3F7F4F8F4F9F4710F40E9414136F85EA
:1055C00061110E942F1386E0E1E4F4E0DE01119600
:1055D00001900D928A95E1F7909042041091430456
:1055E00000914404A0904504B090460410924304F6
:1055F000109244041092450410924604812F802B8F
:1056000009F445C080913F04909140040E948219A2
:105610009C0190913A04992309F42DC2253131055A
:10562000B0F19F3F19F09F5F90933A04112359F016
:105630000E9446099FEF11160CF491E0899F802D7E
:10564000112480934304002359F00E94460991E0FD
:1056500010160CF09FEF899F802D11248093440435
:1056600080914304882399F080904404882079F045
:105670000E946609882309F4D6C180934304882DCB
:105680000E946609882309F4D0C1809344048A2DBE
:105690008B2909F445C080913D0490913E040E94FD
:1056A00082199C0190913B04992309F4DFC12135B3
:1056B0003105B0F19F3F19F09F5F90933B04AA2002
:1056C00059F00E9424099FEF1A140CF491E0899F6D
:1056D000802D112480934504BB2059F00E94240999
:1056E00091E01B140CF09FEF899F802D1124809373
:1056F000460480914504882399F0A0904604AA208E
:1057000079F00E946609882309F491C180934504C9
:105710008A2D0E946609882309F48BC18093460470
:1057200080914204981217C080914304882311F09D
:10573000181311C020914404222311F002130BC04E
:1057400090914604992311F09B1105C030914504B6
:10575000332309F486C10E949D1986E0FE0131962B
:10576000A1E4B4E001900D928A95E1F70E9413093B
:1057700090917003891709F4C2CD809370030E9441
:105780005E08BDCD8DEF92E0BBCE87EF92E0B8CE44
:1057900080EF92E0B5CE509234014092330180E226
:1057A00080934703712C612C10924603F1E48F2EF5
:1057B000F3E09F2EACE3AA2EA3E0BA2E8401C3012E
:1057C000B201A70196010E94C130605D603319F4F7
:1057D0008016910631F0411451046104710409F4FA
:1057E00060E2D80114966C93C301B201A70196013F
:1057F0000E94C13029013A0101501109A016B106D9
:10580000F1F6A3CED8018D918D010E94F710ABCE99
:105810002091B8043091B904AAEBB4E090E080E0A4
:1058200041E050E0FC01E55EFC4F64917D9167171B
:1058300091F0FD0131976083BC01E5E076956795B5
:10584000EA95E1F7FA0102C0EE0FFF1F6A95E2F751
:10585000BF012E2B372B01968115F2E09F0711F720
:105860003093B9042093B8048ACE809139048823F8
:1058700009F48CCE80916D03811188CE0E942F1384
:105880002091B8043091B9042115310509F47ECE78
:1058900080E041E050E0482E512C1A01082E02C051
:1058A000220C331C0A94E2F7B10162237323672BA5
:1058B00011F48F5FF0CF90916C0390FF9AC0880F26
:1058C000880F880F8093380110923B01895F809385
:1058D000390183E080933C0124E630E047E050E06A
:1058E00066E371E088E70E94C62D892B09F04ECE51
:1058F00095E0440C551C9A95E1F780916C0380FF6C
:105900008AC0ECE4F3E080E2DF011D928A95E9F7BA
:10591000E2E9F1E0FB8BEA8B4EE851E087E0A82E4C
:1059200099249394AA89BB896D91BB8BAA8BFA01A8
:105930008191AF01840D952D911D9C0126543B4F03
:10594000398B288BE62FF0E0E45BFC4F90E080E0A1
:105950006A2C681AB92C082E01C0BB0C0A94EAF70D
:105960006889798900E0DB011D91BD011B21262D8D
:10597000201B2770822E022E000C330BB12F01C08A
:10598000BB0F8A94EAF78B2E319521953109277048
:10599000332701C016952A95EAF7812A1081812ABA
:1059A00080820F5F0830F9F60196319688309105B4
:1059B00079F6EA89FB89E659F14009F0B3CF04E6AC
:1059C00010E020E230E04CE453E060E488E70E941D
:1059D000502E892B09F0DACD209430948091B804B0
:1059E0009091B904282239223092B9042092B80447
:1059F000CDCD8295880F80768093380192013695BF
:105A000027953695279520933B01815E8093390138
:105A100020933C0161CFA20146545B4F04E610E0A5
:105A200020E230E0D2CF81E028CE81E02ECE81E0AE
:105A30006DCE81E073CE09BD19BD09B400FEFDCF66
:105A40008091D8008F7D8093D8008091E0008260A3
:105A50008093E0008091E00081FDFCCF0E94C4199A
:105A6000E5CC822B892B09F478CE75CE2B3031050D
:105A700008F022CE55CE2B30310508F0D4CD07CE1C
:105A8000EF92FF920F931F93CF93DF93182FEB01A9
:105A90001092BC0084EA8093BC000E9491197C01A2
:105AA0008091BC0087FF27C08091B900887F883033
:105AB00029F08091B900887F803189F51093BB006F
:105AC00084E88093BC000E9491198C018091BC00F5
:105AD00087FF1EC02091B900287F90E080E0283128
