:100000000C9435060C946D060C946D060C94D82E49
:100010000C946D060C946D060C946D060C946D0694
:100020000C946D060C946D060C94FD180C941E1D1A
:100030000C94F6270C946D060C946D060C946D06CA
:100040000C946D060C946D060C946D060C946D0664
:100050000C946D060C94D6190C946D060C946D06D8
:100060000C946D060C946D060C946D060C946D0644
:100070000C946D060C946D060C946D060C946D0634
:100080000C946D060C946D060C946D060C946D0624
:100090000C946D060C946D060C946D060C946D0614
:1000A0000C946D060C946D060C946D062020202097
:1000B0006162636465666768696A6B6C6D6E6F70B8
:1000C0007172737475767778797A31323334353664
:1000D00037383930524542545F2D3D5B5D5C233BE0
:1000E00027602C2E2F2020202B0014001A0008003F
:1000F00015001700E00004001600070009000A00C0
:10010000E1001D001B0006001900050000000000B2
:100110000000E30021522C002A00130012000C0002
:1001200018001C00340033000F000E000D000B00FF
:1001300029003800370036001000110000000000D0
:100140000000E600225228002B001E001F002000A5
:1001500021002200E000000000000000000000007C
:10016000E1000000000000000000000000000000AE
:100170000000E30001002C002A00270026002500D3
:1001800024002300000000004F00520051005000E6
:10019000000000000000000000000000000000005F
:1001A0000000E600235228002B001E021F0220023E
:1001B00021022202E0002D022E022F023002310223
:1001C000E10000000000000000000000000000004E
:1001D0000000E30023522C002A00270226022502F9
:1001E000240223023500310030002F002E002D00A4
:1001F00000000000000000000000000000000000FF
:100200000000E60001002800007C00000000000063
:10021000000000002078237825782778000000006F
:10022000217824782678287800000000000000005B
:100230000000E30001002C000000000000000000AE
:100240000000000000000000D000CD00CE00CF0074
:1002500000000000DA00D200D100D9000000000048
:100260000000E6000100280000DA0281FFD9F1DB7E
:1002700020A4A62EAF00A0C0D30000A1C8D30000C8
:10028000AED580A81F408D142000556E64656600B1
:1002900041646A757374005261697365004C6F77CD
:1002A00065720044656661756C74004C61796572B5
:1002B0003A20003A002C206B00780000000000007B
:1002C000FEFFFFFFFFFFFFFFFFFFFFFFFFFFFFFF3F
:1002D000FFFFFFFFFFFFFFFFFFFFFFFFFFFFFFFF2E
:1002E000FFFFFFFFFFFFFF0F0F0F0F0FFFFFFFFFCE
:1002F000FFFFFFFFFFFFFFFFFFFFFFFFFE0000000C
:1003000000000000000000000000000000000000ED
:1003100000000000000000000000000000000000DD
:1003200000000000000000000000000000000000CD
:1003300000000000000000000000000000000000BD
:10034000FFFFFFFF8383838383FFFF83838383FF19
:10035000FF8383838383FFFF83838383FFFF838301
:10036000838383FFFFFFFF8282828282FFFF83837A
:100370008383FFFF8383838383FFFFFFFF000000EE
:1003800000000000000000F8FCFCFC9C9CFCFCF859
:10039000F870000000000030787C3C9CFCFCF8F019
:1003A0000000000000C0F0F8F83C3C9CBCFCB8B871
:1003B000A00000000000000000000000000000009D
:1003C000FFFFFFFF4141414141FFFFFFFFFFFFFFF3
:1003D000FF4141414141FFFFFFFFFFFFFFFF41415F
:1003E000414141FFFFFFFF4141414141FFFF7F7F0D
:1003F0007F7FFFFF4141414141FFFFFFFF000000C0
:10040000000000000000003F3F3F3F03070F3F3F59
:100410003E382000000000383C3E3F3F3F3B39382B
:100420000000000000070F1F3F3C383B3B3F1F1FF1
:100430000F000000000000000000000000000000AD
:100440007FFFFFFFF0F0F0F0F0FFFFFFFFFFFFFF87
:10045000FFF0F0F0F0F0FFFFFFFFFFFFFFFFF0F015
:10046000F0F0F0FFFFFFFFF0F0F0F0F0FFFFF0F032
:10047000F0F0FFFFF0F0F0F0F0FFFFFF7F00000072
:10048000000000000000000000000000000000006C
:10049000000000000000000000000000000000005C
:1004A000000000000000000000000000000000004C
:1004B0000000000000000000000000000101010138
:1004C000010101010102020202020202020203030F
:1004D00003030303030304040404040404050505DF
:1004E00005050606060606070707070708080808A1
:1004F000090909090A0A0A0B0B0B0C0C0C0D0D0D4E
:100500000E0E0E0F0F0F10101111111212131314E3
:1005100014151516161717181819191A1A1B1B1C5B
:100520001D1D1E1E1F2020212222232424252626B5
:10053000272829292A2B2C2D2D2E2F3031323233EA
:100540003435363738393A3B3C3D3E3F40414243F3
:100550004445464748494A4C4D4E4F5051535455D7
:100560005658595A5B5D5E5F616264656668696B87
:100570006C6D6F7072737577787A7B7D7E80828305
:100580008587888A8C8E8F91939596989A9C9EA049
:10059000A2A3A5A7A9ABADAFB1B3B5B7BABCBEC056
:1005A000C2C4C6C9CBCDCFD1D4D6D8DBDDDFE2E41F
:1005B000E7E9EBEEF0F3F5F8FAFDFF00AF00AE056A
:1005C000010902A10185020901A1000509190129FA
:1005D00008150025019508750181020501093009FA
:1005E000311581257F950275088106093815812509
:1005F0007F950175088106050C0A38021581257F53
:10060000950175088106C0C005010980A101850317
:1006100019012AB700150126B70095017510810050
:10062000C0050C0901A101850419012AA0021501C8
:1006300026A002950175108100C005010906A101DF
:100640008506050719E029E71500250195087501BC
:1006500081020507190029EF1500250195F07501A4
:100660008102050819012905950575019102950179
:1006700075039101C005010906A101050719E029CB
:10068000E71500250195087501810295017508811E
:10069000010507190029FF150026FF0095067508BA
:1006A0008100050819012905150025019505750129
:1006B0009102950175039101C009023B00020100FE
:1006C000A0FA090400000103010100092111010041
:1006D000012244000705810308000109040100010B
:1006E0000300000009211101000122B60007058264
:1006F000032000011201000200000008534601001F
:100700000100010200010C0343006F0072006E0043
:1007100065000000100366006F006F007300740036
:1007200061006E00000004030904000000000000E6
:100730003E5B4F5B3E003E6B4F6B3E001C3E7C3E83
:100740001C00183C7E3C18001C577D571C001C5E8A
:100750007F5E1C0000183C180000FFE7C3E7FF00A5
:10076000001824180000FFE7DBE7FF0030483A06D6
:100770000E00262979292600407F05050700407FC5
:1007800005253F005A3CE73C5A007F3E1C1C0800F0
:10079000081C1C3E7F0014227F2214005F5F005F54
:1007A0005F0006097F017F00006689956A0060602E
:1007B0006060600094A2FFA2940008047E04080018
:1007C00010207E20100008082A1C0800081C2A0897
:1007D00008001E10101010000C1E0C1E0C003038EB
:1007E0003E383000060E3E0E0600000000000000FD
:1007F00000005F000000000700070000147F147F66
:100800001400242A7F2A1200231308646200364948
:1008100056205000000807030000001C2241000081
:100820000041221C00002A1C7F1C2A0008083E08E8
:100830000800008070300000080808080800000068
:10084000606000002010080402003E5149453E004F
:1008500000427F4000007249494946002141494D0C
:1008600033001814127F10002745454539003C4AD3
:1008700049493100412111090700364949493600EB
:10088000464949291E0000001400000000403400C1
:100890000000000814224100141414141400004134
:1008A000221408000201590906003E415D594E001C
:1008B0007C1211127C007F49494936003E4141417A
:1008C00022007F4141413E007F49494941007F0963
:1008D000090901003E41415173007F0808087F006B
:1008E00000417F4100002040413F01007F08142269
:1008F00041007F40404040007F021C027F007F0497
:1009000008107F003E4141413E007F090909060071
:100910003E4151215E007F09192946002649494977
:10092000320003017F0103003F4040403F001F2091
:1009300040201F003F4038403F006314081463000C
:100940000304780403006159494D4300007F41418D
:100950004100020408102000004141417F000402D0
:10096000010204004040404040000003070800002E
:100970002054547840007F2844443800384444448C
:100980002800384444287F00385454541800000884
:100990007E0902001824241C78007F0804047800D3
:1009A00000447D4000002040403D00007F1028446E
:1009B000000000417F4000007C04780478007C083F
:1009C000040478003844444438007C182424180077
:1009D000182424187C007C0804040800485454544B
:1009E000240004043F4424003C4040207C001C20A0
:1009F00040201C003C4030403C004428102844006B
:100A00004C9090907C004464544C44000008364163
:100A100000000000770000000041360800000201DD
:100A2000020402003C2623263C00000000000000D7
:100A300000000000000000000000C0E0F0F8F8181E
:100A400000C0F0FCFEFFFFFFFFFFFFFF7E00000085
:100A500000000000000080C0E0E0E0E0E0E0E0E056
:100A6000C0800000000080C0E0E0E0E0E0E0E0E006
:100A7000C080000000E0E0C0C0E0E0E0E00000E096
:100A8000E0C0C0E0E0E0E0E0C0800000000080C026
:100A9000E0E0E0E0E0E0E0E0C08000000000000016
:100AA0000000000000000000E0F0F0F0E0ECEEF7E5
:100AB000F37020007C7C7C7E007E7E7E7F7F7F00CA
:100AC0000080C0E07E5B4F5BFEC00000C000DCD752
:100AD000DEDEDED7DC00C000000000000000000009
:100AE0000000000000000000000000000000000006
:100AF000000000F8FCFEFFE000FFFFFFFFFFFF80AB
:100B0000FFFFFFFFFFFFFFFFFF1F070100000000C7
:100B10000000000000FFFFFF8100000000000081D6
:100B2000C3C3C30000FFFFFF81000000000000817D
:100B3000FFFFFF0000FFFFFF01000000000000FFBB
:100B4000FFFF010000000001FFFFFF0000FFFFFFAB
:100B50009D1C1C1C1C1C1C9DDFDFDF000000000016
:100B600000000000000000000F1F3F7F7F7F7F7F9D
:100B70003F1E0C001F1F1F3F003F3F3F7F7F7F0036
:100B8000307B7F7830202030787F3B0003000F7F60
:100B90000F0F0F7F0F000300000000000000000097
:100BA0000000000000000000000000000000000045
:100BB000000000030F1F3F3F3F3F1F1F3F3F7F7F4E
:100BC0007F3F3F1F3F7F7F7F7F7C7878381C0F00FF
:100BD00000000000000001030707070707070707D9
:100BE00003010000000001030707070707070707C5
:100BF00003010000000707070000000000000007D5
:100C000007070000000000000707070000000103BD
:100C10000707070707070707030100000000000098
:100C200000000000000000000000000000000000C4
:100C300000000000000000000000000000000000B4
:100C400000000000000000000000000000000000A4
:100C50000000000000000000000000000000000094
:100C60000000000000000000000011241FBECFEFB4
:100C7000DAE0DEBFCDBF04B603FE18C08091C20625
:100C80009091C306A091C406B091C5068730904BE1
:100C9000A740B04B59F41092C2061092C3061092AE
:100CA000C4061092C506E0E0F8E3099512E0A0E062
:100CB000B1E0ECEBF2E602C005900D92A037B1076F
:100CC000D9F726E0A0E7B2E001C01D92A23CB2072E
:100CD000E1F70E941D280C94F8300C9400009091CC
:100CE000AF04937061F081110BC094609093AF04D6
:100CF000109245018091AE0481608093AE04089506
:100D0000803110F09C63F2CF880F880F982BEECFC4
:100D1000482F2091A60490916D0457E0291302C03A
:100D200080E0089530E0529FF001539FF00D1124B0
:100D3000E259FB4F8181681306C08081481303C0CC
:100D400085818111EECF2F5F3F4F2770E7CFFC01E8
:100D5000AC014C5F5F4F8FEF91E32191822728E038
:100D600030E087FF09C0880F892721503109C9F772
:100D7000E417F50791F70895880FF7CF9091AF0426
:100D8000937071F08093B0046093B104493708F018
:100D900048E74093B2048091AE0481608093AE0432
:100DA0000895E8EDF0E080818E7F80831092E2006C
:100DB0001092DA001092E100A0EEB0E08C91816018
:100DC0008C9380818F77808319BCA7EDB0E08C91E4
:100DD0008E7F8C9380818F7E80831092560408953D
:100DE0002091E4003091E50095E6A9012091EC0006
:100DF000822F817020FF06C08091E80080FF06C02E
:100E000080E008952091E80022FD1AC080916304DB
:100E1000882389F0853089F08091EB0085FD0FC033
:100E20002091E4003091E50042175307F9F2915008
:100E3000E1F684E0089582E0089583E0089581E07A
:100E400008958091650487FF13C08091E80082FFB8
:100E500006C08091E8008B778093E80004C0809101
:100E600063048111F2CF0895809163048823D9F33C
:100E70008091E80080FFF8CF8091E8008E77ECCF7A
:100E8000982F9093E900242F762F50E0891731F0A6
:100E90007091EC002091ED005091F00021FD07C011
:100EA0009F5F973071F78093E90081E0089530915A
:100EB000EB003E7F3093EB003091ED003D7F3093AF
:100EC000ED003091EB0031603093EB007093EC005B
:100ED0002093ED005093F0002091EE0027FDE0CF2D
:100EE00080E00895B0E0A0E0E8E7F7E00C9412306D
:100EF000C8EDD0E088818F7E8883E7EDF0E08081C7
:100F00008160808384E082BF81E080935604888181
:100F10008E7F888302EE10E0F80110821092DA00D2
:100F200081EEC82ED12CF601108288818F778883BC
:100F300088818068888388818F7D888319BC10921E
:100F4000630410926404109262041092610490EEA3
:100F5000E92EF12CF70180818B7F8083888181606D
:100F6000888342E060E080E00E944007F6018081D3
:100F70008E7F8083F801808181608083808188609A
:100F80008083F70180818E7F808388818061888360
:100F9000CDB7DEB7E8E00C942E30FC0180916B04F5
:100FA00090916C0486179707A0F06115710529F4DC
:100FB0009091E8009E779093E80090E061157105AC
:100FC00051F4911108C08091E80082FF34C080E0A4
:100FD0000895BC01F2CF809163048823C1F185306C
:100FE000C1F18091E80083FD30C08091E80082FD6E
:100FF000EACF8091E80080FFE1CF8091F30020915B
:10100000F200382F6115710519F02830310558F0BC
:1010100091E02830310509F090E02091E8002E772A
:101020002093E800CBCF81918093F100615071094A
:101030002F5F3F4FE7CF80916304882341F08530D5
:1010400041F08091E80083FFBECF81E0089582E007
:10105000089583E008958091580408952FB7F89477
:1010600060915204709153048091540490915504FE
:101070002FBF0895909141019923D1F090914F0491
:1010800097FF16C0E82FE695E695E695EE31E0F479
:10109000F0E0E658FD4F282F277081E090E001C076
:1010A000880F2A95EAF78095928189238283089593
:1010B000E4E7F2E09191891303C0DF0111971C92DC
:1010C00092E0EA37F907B1F7089590914101992329
:1010D000C1F090914F0497FF14C0E82FE695E69574
:1010E000E695EE31F8F4F0E0E658FD4F877021E028
:1010F00030E001C0220F8A95EAF78281822B828339
:101100000895A4E7B2E0EFEF90E02D91821751F03F
:10111000EF3F19F4211101C0E92F9F5F9630A9F725
:10112000EF3F09F408950E2E000CFF0BEE58FD4F13
:10113000E6CFA3E0B0E0EFE9F8E00C94183020919E
:101140004D0430914E0428173907A1F090934E04B6
:1011500080934D04E0914B04F0914C04309751F092
:1011600024E029839B838A830084F185E02DCE01CE
:10117000019609952396E2E00C943430A3E0B0E0A8
:10118000E4ECF8E00C9418302091490430914A04C2
:1011900028173907A1F090934A0480934904E091FD
:1011A0004B04F0914C04309751F023E029839B834A
:1011B0008A830084F185E02DCE010196099523965E
:1011C000E2E00C94343080914704882359F0E09198
:1011D0004B04F0914C04309729F00190F081E02D00
:1011E0000995089580E0089580913C0480FD16C023
:1011F00081FD16C082FD16C080913B048823A1F0BA
:10120000883280F428E0829FC001112468E270E0F7
:101210000E944B30862F672B39F0089582E00895A5
:1012200084E0089588E0089581E0089580913C0469
:1012300080FD14C081FD14C082FD16C080913A0467
:10124000882381F08E3180F420E5829FC001112433
:101250006EE170E00E944B30862F089584E108957E
:1012600088E2089588E0089580E50895282F35EBF9
:101270002303C001112497FF04C080589109892FCE
:10128000089580589F4FFBCFFA01811101C0FB01E7
:101290000995089530914804311123C08B3191058F
:1012A0001CF14B97FC01EE0FFF1FDF01A80FB91FC8
:1012B000AE56BC4F11963C911197361307C03C9126
:1012C000341304C012963C91321771F031E0309320
:1012D0009103E80FF91FEE56FC4F61834083228390
:1012E00003C08B319105F4F2089510929103089593
:1012F000EFEAF4E0248130E1231B08F420E02483AA
:101300008091AE0481608093AE040895EFEAF4E02A
:10131000248130E1230F08F42FEF24838091AE0461
:1013200081608093AE040895EFEAF4E0438120E108
:10133000421B08F440E08181628190E00E94BE0679
:101340000895EFEAF4E0438120E1420F08F44FEF03
:101350008181628190E00E94BE060895EFEAF4E088
:10136000628120E1621B08F460E08181438190E0AA
:101370000E94BE060895EFEAF4E0628120E1620F68
:1013800008F46FEF8181438190E00E94BE060895CA
:10139000EFEAF4E08181438162818850990B0E94D9
:1013A000BE060895EFEAF4E0818190E04381628116
:1013B00008960E94BE0608958091AF048695869592
:1013C000815009F48FE00E946F0608958091AF0468
:1013D000869586958F5F803108F081E00E946F06C8
:1013E00008959BE0899F802D1124980F973308F072
:1013F00096E320914804222321F09C3128F09BE1C0
:1014000008958B3108F48BE10895322F50E0FA01F2
:10141000EE0FFF1FE256FE4F91A9905297FD919556
:10142000440F551FFA01E253FE4F2081231B330B5B
:10143000290F311D97FD3A95620F0895622F089587
:10144000E42FF0E0EE0FFF1FE253FE4F408134EE39
:10145000439F412D1124E82FF0E050E0445E5F4FA0
:10146000DA01A21BB1099D01B7FF03C03195219597
:10147000310993E0220F331F9A95E1F7AF01421B28
:10148000530B9A0157FD20E0582F259F212D112441
:10149000822F0895E42FF0E0EE0FFF1FE253FE4F7E
:1014A000408134EE439F412D1124E72FF0E050E0BE
:1014B000445E5F4FDA01A21BB1099D01B7FF03C073
:1014C00031952195310993E0220F331F9A95E1F769
:1014D000AF01421B530B9A0157FD20E0279F212D9E
:1014E0001124722F08950E944A090895FF920F93C4
:1014F0001F93CF93DF93182F062FF42ED0E0C0E078
:101500002F2D402F612FCE010E94730A2196C633E2
:10151000D105B1F7CDB7DEB7E5E00C943130FC0171
:101520009B01009729F480E077FF2BC080E80895A5
:10153000AC0197FF04C044275527481B590BB9013C
:10154000640F751F37FD10C0241B350BC901A5E0C2
:10155000880F991FAA95E1F70E944B3080E2861B05
:10156000F7FF0FC081950895CB0165E0880F991FA3
:101570006A95E1F7BA01621B730B0E944B3080E65B
:10158000EECF0895EF920F93CF93DF93D72FC82F0D
:10159000C9010E19BA010E948F0A602F681B7D2FA6
:1015A0008C2FDF91CF910F91EF900895EF920F93D1
:1015B0001F93CF93DF93D62FC72F182FC9010E1972
:1015C000010FBA010E948F0A081B202F219F212D95
:1015D0001124822F6D2F7C2FDF91CF911F910F91BE
:1015E000EF900895EF920F931F93CF93DF93D62F31
:1015F000172FC82FC9010E19070FBA010E948F0AB1
:10160000702F781B719F712D11246D2F8C2FDF91FE
:10161000CF911F910F91EF900895E82F86FDE095EF
:101620002E2F2F7086FD2F5FE695E695E695E670E6
:10163000F0E0EA56FE4F9181929F902D212D1124CA
:1016400092959F702295207F922B2081920F87FD8B
:10165000919580E8890F089540913D0150913E0198
:1016600025E038E0429FC001439F900D529F900DAE
:101670001124875E994C90933E0180933D01890F20
:10168000089530E020E0869F212D969F200D311D8A
:101690001124C9010895982F80914804882329F0C6
:1016A00081E09B3128F080E003C081E09633D8F7D9
:1016B0000895AF92BF92CF92DF92FF920F931F9344
:1016C000CF93DF93362F472FE82FF0E0E554FB4F01
:1016D00071110FC0E4918E2F2E2F6E2F722FDF917C
:1016E000CF911F910F91FF90DF90CF90BF90AF905F
:1016F0000895C72FD0E02491F22E022F10E056E07B
:10170000659FC0011124EFEFF0E0BF010E94F42FAC
:10171000832F90E0880F991F35E5369FD001379FC2
:10172000B00D11248A1B9B0B982F990F980F6F01F6
:10173000CC1ADD0AC09ED001C19EB00DD09EB00D66
:1017400011248B2F499FA0011124452F55276F018C
:10175000C41AD50AC09EA001C19E500DD09E500D46
:1017600011245F01A91AB108AC9E6001AD9ED00C96
:10177000BC9ED00C1124CD2CDD24EC19FD09E09F7A
:10178000E001E19FD00DF09FD00D1124ED2F6230CC
:101790007105A1F050F46115710509F49ECF613017
:1017A000710581F0EB2F852F98CF6430710569F0BA
:1017B00080F06630710509F490CFF4CFE22F2B2F23
:1017C0008D2F8BCFE22F252F88CFEB2F822F2D2F20
:1017D00084CF2B2F8F2DE52F80CFB0E0A0E0E3EF5B
:1017E000FBE00C9413308C01FC01E65CFD4F808122
:1017F000682349F1D090B104D091B204C091B004F3
:10180000EC2EF12C0E942C0B282FC7018C549F4FDB
:1018100068E671E00E944B308E199F0997FD039690
:10182000959587959595879523706C2F289F600DCA
:1018300011247D2D8D2F0E94590B462F282F672FA5
:10184000C8010E94730ACDB7DEB7E7E00C942F30D1
:10185000B0E0A0E0EEE2FCE00C9410305C0180917E
:1018600042010E94F109C82F192F6091B3046695B7
:101870008091A7049091A8040E94410BF82ED0E01B
:10188000CE01880F991F9C0122563E4F6901C11756
:1018900040F0812F0E944B0BCDB7DEB7EAE00C94ED
:1018A0002C30FE01E65CFD4F80819091430189233D
:1018B00009F451C0D601D0964C91D0974057550BA2
:1018C000D1962C912052330B449FB001459F700D4F
:1018D000700D1124229FC001239F900D900D1124A3
:1018E000860F971F082F8230910520F1EFEF813E80
:1018F000BEE19B0738F4FC01B5E0F695E795BA9593
:10190000E1F7E85FF1E0AF2FAE0FBB27BB1FBD01D2
:1019100075956795062F669FD001679FB00DB00D36
:1019200011248A179B07E0F4EFEFE60FEF1758F743
:101930000FEF0F0F6091B0047091B1048091B20469
:10194000EF2CF50109950E94590B462F282F672F80
:10195000CE010E94730A2196F2E0CF0ED11C97CFE0
:101960006F3F41F3F1E0F60FE1CFEF92FF920F935B
:101970001F93CF93DF937C01809142010E94F10974
:10198000C82F192F6091B3046695669521E0620F08
:1019900008F46FEF8091A7049091A8040E94410B76
:1019A000082FD0E0C11740F0812F0E944B0BCDB71C
:1019B000DEB7E6E00C943030FE01E65CFD4F80813E
:1019C00090914301892391F06091B0047091B1042A
:1019D0008091B204202F4C2FF70109950E94590BDA
:1019E000462F282F672FCE010E94730A2196DACF47
:1019F00080E00895F894E82FE295EF70F0E031A1CF
:101A0000282F2F7081E090E001C0880F2A95EAF717
:101A1000982F9095932391A392A1892B82A37894D8
:101A200008950F931F9380914704882329F00E9403
:101A30002E081F910F9108950E942E0800912003F7
:101A4000109121032091220330912303600F711F15
:101A5000821F931FEECF90914F0492FF10C041E080
:101A6000282F2471243009F040E031E0282F28711C
:101A7000283009F030E0431711F02CE0822793FF63
:101A800010C041E0282F2471243109F040E031E0FA
:101A9000282F2871283109F030E0431711F02CE08D
:101AA00082273091500430FF10C051E0282F21715F
:101AB000213009F050E041E0282F2871283009F04A
:101AC00040E0541711F029E0822731FF10C041E0B7
:101AD000282F2171213109F040E031E0282F2871B1
:101AE000283109F030E0431711F029E0822794FDF6
:101AF000877E089582389105B9F1B0F4813391055C
:101B000009F47DC048F48932910509F46DC08A3228
:101B1000910509F47BC008958533910509F45FC0F0
:101B20008933910509F10895833E9105D9F138F47F
:101B3000803E910529F1823E910579F10895863E16
:101B40009105D9F1873E910509F43EC0843E910587
:101B500041F52091500421FF24C080914F0484FD61
:101B600019C087EE90E0089520914F04237009F08A
:101B70005AC02091500423FF14C089E290E00895D8
:101B800020914F0420FD38C03091500430FF09C02F
:101B900024FF43C090E080E0089520914F0422FD8F
:101BA000F7CF089520914F0422FD3AC030915004A0
:101BB00030FD39C024FFF5CFEDCF20914F0423FF36
:101BC000F0CF24FDE7CFCDCF20914F0423FD2EC0D1
:101BD0003091500431FFEECF84EE90E008952091D3
:101BE0004F0425FFDECFC9CF20914F0425FD21C032
:101BF0002091500423FFD5CF89E390E0D2CF2091EC
:101C00004F0426FFCECF8AE290E0089520914F0442
:101C100026FFC7CF81E390E0089583EE90E008951A
:101C200082EE90E0089580EE90E0089586EE90E0D8
:101C3000089585E390E00895972F7830B8F46630E2
:101C4000A8F48430B0F470E026E0929F600D711D1E
:101C50001124FB0190E3899FE00DF11D1124EE0F8B
:101C6000FF1FE851FF4F85919491089580E090E027
:101C7000089581E0FCCF1F93CF93DF930E947A0DEC
:101C8000EC01C11580E5D807F0F5C11580E4D8074F
:101C900008F09CC0C03ED10520F5CD3CD10508F030
:101CA00082C0C83AD10578F4C53AD10508F073C0AE
:101CB000C130D10519F1209709F1C430D105F0F4F4
:101CC000D0E0C0E01BC0C33CD105D0F7C85AD0E07B
:101CD000CC0FDD1FC45BDE4F0990D881C02DD464CA
:101CE0000DC0C11580E2D80708F0D1C0C11581E050
:101CF000D80708F05AC0C83ED10510F7CE01DF91D1
:101D0000CF911F910895C03682E5D80718F5C034E9
:101D100082E5D80708F06BC0C03282E5D80708F02A
:101D20005FC0C11582E5D80708F497C02C2F26950F
:101D3000269580E2289F900111248C2F8370C1E0AA
:101D4000D0E002C0CC0FDD1F8A95E2F7C22BD32B67
:101D5000DD68D4CFC03A82E5D80760F4C03882E5A8
:101D6000D80708F459C0CF71D0E0DC2FCC27C46F5E
:101D7000D06AC4CFC03C82E5D80708F462C0C03E38
:101D800082E5D80708F09CCFDC2FCC27CC27DF7169
:101D9000C06FD06AB3CFC55AD0E0C75BDE4FC881F1
:101DA000D0E0D064ABCFD065A9CF8D2F0E942B0D92
:101DB000182FCE0199270E947A0DC12FD0E0DC2F79
:101DC000CC27CC27DF71C82BD92B98CFCE019927F0
:101DD0000E947A0DCC27DF70C82BD92BD06A8ECF0A
:101DE000CF71D0E0DC2FCC27C16FD06A87CF2C2FEA
:101DF00026952695277080E2289F900111248C2F2C
:101E00008370C1E0D0E002C0CC0FDD1F8A95E2F7FD
:101E1000C22BD32BDC6872CF2C2F269526952770EA
:101E200080E2289F900111248C2F8370C1E0D0E0C4
:101E300002C0CC0FDD1F8A95E2F7C22BD32BDA68E4
:101E40005DCF8C2F8F710E942B0DC82FD0E0DC2F1F
:101E5000CC27CC27DF71D06251CF8C2F8F710E949D
:101E60002B0D55E0D695C7955A95E1F7CF70D0E088
:101E7000DC2FCC27282F30E084FF05C044E0220F60
:101E8000331F4A95E1F7C22BD32BD06937CF8D2F63
:101E90008F710E942B0D182FCE0199270E947A0D69
:101EA000C12FD0E0DC2FCC27CC27DF71C82BD92B5A
:101EB000D2CF80959091E60298239093E602089500
:101EC0008091E6029091BD02892B9091BC029923EA
:101ED00091F0892B90914101992371F090914F04D9
:101EE00097FF0AC09EE12CE732E040E0915040F4B9
:101EF00041111092BC02089596E024E732E0F5CF3C
:101F0000F90151919F01552389F34F5FEFCF8091E4
:101F1000A60490916D04981301C008958F5F877097
:101F2000FACFB0E0A0E0E7E9FFE00C9411307C01CB
:101F300000913F03109140038091E7029091E802E5
:101F4000082B192BCFE0D0E0CC24C394D12CBC2E8D
:101F5000C6010C2E02C0880F991F0A94E2F7802355
:101F60009123892B49F4219790F7B12C8B2DCDB774
:101F7000DEB7E9E00C942D30B7018C2F0E941C0EC7
:101F80000E943B0E019779F3F1CFCF93DF93EC01E1
:101F90000E94910FBE010E941C0E0E943B0EDF9119
:101FA000CF910895983078F5863068F5E82FF0E005
:101FB00086E0989FE00DF11D11249E2F977083E01D
:101FC000F695E7958A95E1F7EE0FFF1FEE0FFF1FDD
:101FD000E456FD4F50E040E080E0219130E0092ED2
:101FE00002C0369527950A94E2F721703327042E14
:101FF00001C0220F0A94EAF7822B4F5F5F4F4430F3
:10200000510559F7089580E00895983098F5863085
:1020100088F5E82FF0E086E0989FE00DF11D11248F
:102020008E2F877041E001C0440F8A95EAF783E064
:10203000F695E7958A95E1F7EE0FFF1FEE0FFF1F6C
:10204000E456FD4F30E020E070E05191DF01119740
:10205000CB01022E02C0969587950A94E2F7817013
:1020600081958527842385278C932F5F3F4F2430CC
:10207000310559F708959093400380933F030895E5
:1020800021E030E002C0220F331F8A95E2F720954D
:10209000309580913F0390914003822393230E94C7
:1020A0003B1008959091BB02809589238093BB02D9
:1020B000282F277069F4891759F09091500492FFE6
:1020C00007C08695869586950E9440101092BB02A7
:1020D000089521E030E002C0220F331F8A95E2F715
:1020E00080913F0390914003822B932B0E943B10E1
:1020F00008959093E8028093E7020895FC012481FB
:102100002223C1F0808191810E94C50F92959F701A
:10211000963091F058F4925F9F70923058F4803F5F
:1021200019F030F4883E30F481E008959A5FF4CFDE
:10213000843FD1F380E00895883EB0F3813FD1F72A
:10214000F3CFA6E0B0E0E7EAF0E10C941730498362
:102150005A8349815A819923A1F0222391F0CA011F
:102160000E94910F182F682F89819A810E94051073
:1021700069817A81812F0E941C0E2696E3E00C94DF
:102180003330CA010E94D20F182FF2CFCF93DF93C2
:10219000682F81E06A3019F06D3031F480E00E94E0
:1021A0005411DF91CF9108958091C0069091C1069E
:1021B00026E0FC01AAEBB6E001900D922A95E1F72A
:1021C000603E08F458C026E0FC0111922A95E9F718
:1021D000C091C006D091C10646E050E0BE018AEB36
:1021E00096E00E9490309E012A5B3440892B41F199
:1021F000C90145E0969587954A95E1F741E050E0A1
:10220000BA0102C0660F771F8A95E2F7CB01609191
:10221000B8047091B904862B972BB9016B5F7F4F7F
:10222000E5E076956795EA95E1F702C0440F551F02
:102230006A95E2F7842B952B9093B9048093B804A8
:102240002A5F3F4F4091B704642F70E0C9010E949C
:10225000F42F481B463010F4240F311D211572E075
:10226000370710F030E020E026543B4F3093C10692
:102270002093C00696CFF6E06F9FB0011124665DF3
:10228000784F46E050E00E948730A2CFCF93DF9393
:10229000EC01FE018491811103C0DF91CF9108957B
:1022A0000E94C6102196F5CFCF93382FE091C0063B
:1022B000F091C106EA5BF4402091B704622F70E010
:1022C000CF010E94F42F281B822F332361F066E098
:1022D0000E943F30C82FC15010F4CF91089580E282
:1022E0000E94C610F8CF9F01280F311D21153240E2
:1022F00018F080E0F0E0E0E08E0F9F2F911D8654F3
:102300009B4F9093C1068093C006E7CF0E94461171
:1023100081E00E945411089580914101882359F170
:1023200080914F0487FF27C00E94600F80937B023B
:1023300040E250E06EEB72E08AE792E00E9490305B
:10234000892BC1F080E2EAE7F2E0AEEBB2E0019067
:102350000D928A95E1F7E0914B04F0914C0430978F
:1023600049F086E080937A020480F581E02D8AE7C7
:1023700092E0099508950E94600F8093720248E0F0
:1023800050E06EED72E082E792E00E949030892B7F
:1023900089F388E0E2E7F2E0AEEDB2E001900D9261
:1023A0008A95E1F7E0914B04F0914C04309711F3DA
:1023B0000280F381E02D82E792E0DBCF882321F0D9
:1023C0000E94590F0E948C110895882339F0909132
:1023D000E602982B9093E6020E948C1108950F93C9
:1023E0001F93CF93DF938B01EA01909163049430A4
:1023F00061F58093E9008FEF9091E800815095FDA1
:1024000006C095ED9A95F1F700008111F5CF809106
:10241000E80085FF1AC00E94F006811111C080916A
:10242000E80085FD06C08091E8008E778093E80083
:10243000F2CFF80181918F018093F100219779F714
:102440008091E8008E778093E800DF91CF911F9113
:102450000F91089543E050E0BC0182E00E94EF112B
:10246000089546E050E0BC0182E00E94EF1108951B
:1024700040E250E0BC0182E00E94EF110895CF934A
:10248000DF93EC0148E050E0BC0181E00E94EF11D5
:1024900088E0FE01A9E5B4E001900D928A95E1F78C
:1024A000DF91CF91089581E08093E00080E28093F6
:1024B000D8001092C9008FE19EE40197F1F700C0A7
:1024C000000087E090EBDC018093C2069093C30686
:1024D000A093C406B093C50688E19CE00FB6F894BB
:1024E000A895809360000FBE90936000FFCF80910D
:1024F0009103882341F1539A3BB1377F2BB1286078
:102500004FB7F89482E993E0FC015191CF0168E064
:102510002BB9000000C057FF3BB9550F000000C0A9
:1025200000C000C03BB900C06A9591F7F4E0843365
:102530009F0751F74FBF8FE594E00197F1F700C077
:102540000000109291030895B0E0A0E0EAEAF2E101
:102550000C9410307C015B016A0180911F0301E043
:1025600010E08A3010F40AE010E0C1E0D0E0B501DC
:10257000C701F6010995811104C021960C171D07AA
:102580002CF4CDB7DEB7EAE00C942C30CC9F900150
:10259000CD9F300D300D112490E080E045E34A9549
:1025A000F1F70000019682179307C1F7E0CFB0E082
:1025B000A0E0EDEDF2E10C9412306C017B0164E6D9
:1025C00070E088E70E94522D8C01E601EC0CFD1CA6
:1025D00017FD0BC0FE01849164E670E00E94BE2DE1
:1025E0008C012196CE15DF0599F70E94342E81E0EB
:1025F0000115110509F080E0CDB7DEB7E8E00C94D5
:102600002E308091380490913904911103C091E0EB
:1026100089270895882369F062E070E08DEB95E0EA
:102620000E94D712811103C080913804089510923E
:10263000380480913804EBCFCF93C0913804809157
:1026400039048823D1F00E942E08605A75418F4FBB
:102650009F4F6093340470933504809336049093B5
:102660003704C11108C062E070E08BEB95E00E9476
:10267000D712811105C0C09138048C2FCF910895D5
:1026800081E080933804F7CFA3E0B0E0EAE4F3E11F
:102690000C9409300E94110D6093710370937203C2
:1026A00080937303909374033091AF04232F2370AE
:1026B000722E19F0732E7694769420914501213074
:1026C000D1F0222351F0223009F410C3233009F451
:1026D00017C32396E1E10C942530109242016093D8
:1026E000A7047093A8048093A9049093AA0481E09E
:1026F00080934501EECF9091400181E079120BC0AB
:10270000832F837020913F0130E091E08217130600
:1027100009F490E0892F8170809344018091B40482
:1027200090914301981739F08093430140E060E0B5
:1027300080E00E94760A3FE0371580F0E72DF0E058
:10274000E650FF4C0C94813080914401882309F4B9
:1027500050C140E060E080E00E94760A80E049C11C
:10276000809142010E94F1098983192F6091B00480
:102770007091B1048091B2040E94590B062FF72E7C
:10278000E82E9981892F90E09B838A83FA81F11743
:1027900010F0812F71C0EA81FB81E65CFD4F8081E2
:1027A00090914301892339F02E2D402F6F2D8A817E
:1027B0009B810E94730AEA81FB813196FB83EA8345
:1027C000E5CF809142010E94F1098983192FF09091
:1027D000B1040091B2042091B0042A83622F7F2DAE
:1027E000802F0E94590BE62ED72EC82E6091B3047D
:1027F0003A81630F7F2D802F0E94590B062FF72EF1
:10280000B82E9981892F90E09B838A83FA81F117F2
:1028100008F0BFCFEA81FB81E65CFD4F908180919B
:102820004301892361F02B2D402F6F2D90FD03C0B4
:102830002C2D4E2D6D2D8A819B810E94730AEA8179
:10284000FB813196FB83EA83E1CF809142010E94B4
:10285000F109092FF090B104E090B2042091B30483
:1028600010E4129F112D1124282F30E03B832A837E
:102870009A81901720F0802F0E944B0BBAC0EA81FA
:10288000FB81E65CFD4F8081909143018923C9F073
:10289000EA81FB81EE0FFF1FE256FE4F81A9829570
:1028A0008F706091B004819F600D11247F2D8E2D5B
:1028B0000E94590B462F282F672F8A819B810E94E7
:1028C000730A8A819B8101969B838A83D1CF8091F1
:1028D00042010E94F109092FF090B104E090B20486
:1028E0002091B30410E4129F112D1124E82FF0E081
:1028F000FB83EA833A81301708F0BDCFEA81FB8180
:10290000E65CFD4F8081909143018923E9F0EA81E3
:10291000FB81EE0FFF1FE256FE4F60A9169FB0012C
:10292000112495E0759567959A95E1F78091B0042B
:10293000680F7F2D8E2D0E94590B462F282F672F51
:102940008A819B810E94730A2A813B812F5F3F4FBE
:102950003B832A83CFCF809142010E94F109898372
:10296000192F0091B0048091B1048A83F090B204D1
:102970006091B3046695669566958091A7049091E1
:10298000A8040E94410B0E940D0B805887FD819581
:10299000880F282F3F2D239F212D1124822F602F58
:1029A0007A810E94590B062FF72EE82E9981892FE4
:1029B00090E09B838A83FA81F11708F0EACEEA81DE
:1029C000FB81E65CFD4F808190914301892339F0C2
:1029D0002E2D402F6F2D8A819B810E94730AEA81E0
:1029E000FB813196FB83EA83E6CF8AE49AE00E947A
:1029F000B50C9091420121E0290F209342018111F1
:102A000071C182E0809345018091440181116AC1C6
:102A1000772009F473C1892F0E94F1095ACE80E210
:102A20009AE0E5CF82EF9AE00E94280CE2CF86ED93
:102A30009AE0FACF8EE19AE0DACF85E09AE0D7CF3C
:102A400082EC9AE0F1CF809142010E94F109192FA6
:102A500090914401911120C06091B30420E1620F74
:102A600008F46FEF8091A7049091A8040E94410B95
:102A70006AE070E00E94F42F892B09F08ACE0E9450
:102A80002C0B26E3829FC001112460914301892F02
:102A900090E00E94ED0B7DCEE82FF0E0FB83EA830F
:102AA000E12EF12C8A819B818E159F050CF071CE51
:102AB000609143018A819B810E94ED0B2A813B81B9
:102AC0002F5F3F4F3B832A83EDCF809142010E94CD
:102AD000F1098983192FF090B1040091B20490910B
:102AE000B0049A836091B30466956695669580916B
:102AF000A7049091A8040E94410B0E940D0B8058DE
:102B000087FD8195880F682F2CE0629F612D11242D
:102B1000EA816E0F7F2D802F0E94590B062FF72E12
:102B2000E82E3981232F30E03B832A839A81911745
:102B300008F02FCEEA81FB81E65CFD4F8081909109
:102B40004301892339F02E2D402F6F2D8A819B81DF
:102B50000E94730A8A819B8101969B838A83E6CFB8
:102B600080914401882329F040E060E080E00E94E9
:102B7000760A809142010E94F109392E4091A70402
:102B80005091A8046091A9047091AA0480918D03CA
:102B900090918E03A0918F03B091900384179507B5
:102BA000A607B70708F08AC06091B0047091B1041D
:102BB0008091B2040E94590B662E572E482E05E7CD
:102BC00013E0EEE9F1E0FB83EA83AA80BB804501D4
:102BD000780192E0998302C0F1E0F983F701219135
:102BE0007F01F40181914F0190E0F501C580D12C66
:102BF000222309F465C0242D462D652D0E94730AF9
:102C0000242D462D652DC6010E94730AF70180818F
:102C100031978083F1E0AF1AB10829812130E1F6C4
:102C2000EA81FB81828190E0E380F12CF80122812E
:102C3000222309F44EC0242D462D652D0E94730ACF
:102C4000242D462D652DC7010E94730A0E942C0B6E
:102C5000837091E009F090E0F80192830D5F1F4FBF
:102C60002A813B812A5F3F4F3B832A832E5C314080
:102C700009F0ABCF2091B30430E1230F08F42FEF1C
:102C800060E1822F90E00E94410BBC0188EB9BE049
:102C90000E94F42F8091A7049091A804A091A90408
:102CA000B091AA04860F971FA11DB11D80938D03BB
:102CB00090938E03A0938F03B0939003832DDCCD6C
:102CC00020E040E060E00E94730A20E040E060E025
:102CD0009ACF20E040E060E00E94730A20E040E0EC
:102CE00060E0B1CF772009F4F4CC95CE709240012A
:102CF000832F837080933F010E94771283E0F8CC8A
:102D00008091AE04882351F048E050E068E170E023
:102D10008FEA94E00E94C4301092AE04C090A704E1
:102D2000D090A804E090A904F090AA0480914704F0
:102D30008823C1F02FB7F894609152047091530426
:102D400080915404909155042FBF6C197D098E0910
:102D50009F09603171058105910508F4BACC109284
:102D60004501B7CC0E94110DF0CFEFEAF4E085E009
:102D700080838091460190914701A0914801818311
:102D80009283A3838FE784838FEF858348E050E0AD
:102D900068E170E0CF010E94C4301092AE04089543
:102DA0009091500492FB222720F9281779F080FB9C
:102DB00092F99093500460914F047091500484E014
:102DC00090E00E94F23082E00E9452100895A4E048
:102DD000B0E0EDEEF6E10C941730409117035091FE
:102DE00018036091190370911A032FB7F89480911A
:102DF000520490915304A0915404B09155042FBFF4
:102E0000841B950BA60BB70B11E084369105A10529
:102E1000B10570F10E94110D6E5F7F4F8F4F9F4F74
:102E200069837A838B839C838091190190911A0125
:102E30008F5F9C4F4091180150E04530510510F0D4
:102E400044E050E0BE016F5F7F4F0E949D3083E001
:102E500090E00E947E2F182F882351F00E942E08A8
:102E600060931703709318038093190390931A03C8
:102E7000812F2496E3E00C943330EF92FF921F935E
:102E8000CF93DF9300D000D00F92CDB7DEB77B0198
:102E900090E080E00E947E2F182F882309F46DC0F7
:102EA0004091030150E04115510511F041E050E01F
:102EB00060910401709105016F5F7C4FCE01059612
:102EC0000E949D304091F9025091FA026091FB02FC
:102ED0007091FC022FB7F8948091520490915304A2
:102EE000A0915404B09155042FBF841B950BA60BE1
:102EF000B70B84369105A105B10538F482E093E063
:102F00000E94A7069D818917C1F181E090E00E948F
:102F10007E2F882309F458C040910B0150E04530C2
:102F2000510510F044E050E060910C0170910D01EA
:102F30006F5F7C4FCE0101960E949D3082E093E04E
:102F40000E94A7069D8189133FC00E942E086093AE
:102F5000F9027093FA028093FB029093FC0289813C
:102F60009A81AB81BC818093F5029093F602A09385
:102F7000F702B093F80211E00EC080910203909125
:102F80000303A0910403B091050389839A83AB8363
:102F9000BC831111E4CF8091F5029091F602A091CB
:102FA000F702B091F802F70180839183A283B38383
:102FB000812F0F900F900F900F900F90DF91CF9176
:102FC0001F91FF90EF90089510E0E5CF4F925F9230
:102FD0006F927F928F929F92AF92BF92EF92FF92E9
:102FE0000F931F93CF93DF937B01FB0140805180B0
:102FF000628073809FB7F89480905204909053043D
:10300000A0905404B09055049FBF84189508A6085A
:10301000B708F4E68F169104A104B10418F4C1E0D6
:10302000442329F1C82F880FDD0BFE0183E0EE0F4A
:10303000FF1F8A95E1F7E050FF4F818192818F5FFA
:103040009C4F408150E00417150708F4A801B9010E
:103050000E949D30CE010E947E2FC82F882339F018
:103060000E942E08F70160837183828393838C2FE3
:10307000DF91CF911F910F91FF90EF90BF90AF9094
:103080009F908F907F906F905F904F900895A9E0F0
:10309000B0E0EDE4F8E10C94163088E0EFEAF4E0FB
:1030A000DE01119601900D928A95E1F7198649E0AB
:1030B00050E06EE073E0CE0101960E94903041E056
:1030C000892B09F440E009E010E09E012F5F3F4F9B
:1030D0006BE173E084E00E94E6172996E4E00C942B
:1030E00032300F931F93CF93DF93EC0144E050E015
:1030F00066E073E00E94903041E0892B09F440E0E3
:1031000004E010E09E016DEF72E082E00E94E6179D
:10311000DF91CF911F910F910895A8E0B0E0E3E90E
:10312000F8E10C94183066EE7EEF90E080E00E94AB
:10313000F23060E082E090E00E94D43081E090E0E4
:103140009093E8028093E70261E083E090E00E94C0
:10315000D43060E074E184E090E00E94F23060E0FE
:1031600086E090E00E94D4306FEF87E090E00E940C
:10317000D43040E050E0BA0188E090E00E94E630B0
:1031800060E084E290E00E94D43060E087E190E06B
:103190000E94D43060E08CE090E00E94D43060E087
:1031A0008DE090E00E94D43019821A821B821C822A
:1031B0001D821E821F82188648E050E068E170E0A0
:1031C000CE0101960E94C43040E050E0BA0180E296
:1031D00090E00E94E63040E050E0BA018FE090E0DD
:1031E0000E94E63040E050E0BA0183E190E00E94A6
:1031F000E6302896E2E00C9434301F920F920FB61E
:103200000F9211242F933F934F935F936F937F936C
:103210008F939F93AF93BF93EF93FF938091E100C0
:1032200082FF09C08091E20082FF05C08091E10029
:103230008B7F8093E1008091DA0080FF24C0809131
:10324000D80080FF20C08091DA008E7F8093DA0062
:103250008091D90080FF9DC080E189BD82E189BD58
:1032600009B400FEFDCF81E0809363048091560491
:10327000811109C00E94D1060E9472078091E2006C
:1032800084608093E2008091E10080FF17C080910C
:10329000E20080FF13C08091E2008E7F8093E20005
:1032A0008091E20080618093E2008091D80080628A
:1032B0008093D80019BC85E0809363048091E1007D
:1032C00084FF2BC08091E20084FF27C080E189BD8C
:1032D00082E189BD89B5982F917080FFFBCF8091E5
:1032E000D8008F7D8093D8008091E1008F7E8093FD
:1032F000E1008091E2008F7E8093E2008091E20005
:1033000081608093E20080916404882309F447C0BF
:1033100084E080936304809163048091E10083FFE3
:1033200027C08091E20083FF23C08091E100877F66
:103330008093E10082E080936304109264048091A2
:10334000E1008E7F8093E1008091E2008E7F809388
:10335000E2008091E20080618093E20042E060E060
:1033600080E00E9440078091F00088608093F00028
:10337000FF91EF91BF91AF919F918F917F916F914D
:103380005F914F913F912F910F900FBE0F901F9023
:10339000189519BC109263041092560474CF809152
:1033A000E30087FD93E090936304B5CF78941F9278
:1033B0001FB61F9211248F939F93AF93BF93809159
:1033C000520490915304A0915404B0915504019675
:1033D000A11DB11D8093520490935304A0935404F3
:1033E000B0935504BF91AF919F918F911F901FBED5
:1033F0001F9018959C014FB7F894809152049091BA
:103400005304A0915404B09155044FBF821B930BF9
:1034100008952FB7F8948091520490915304A0918D
:103420005404B09155042FBF08950E94091A9C01BD
:103430009091430480914404982B21F030934004F0
:1034400020933F049091450480914604982B21F0ED
:1034500030933E0420933D04E0914B04F0914C04E2
:10346000309749F082E0809341040680F781E02D97
:1034700081E494E0099508951092E602809141015B
:10348000882339F180914F0487FF23C0ECE7F2E0F5
:103490008EE1DF011D928A95E9F790E080E00E94BD
:1034A000BE0890E080E00E9499081092BD020E9440
:1034B0008C1186E0E1E4F4E0DF011D928A95E9F7E2
:1034C00010923A0410923B0410923C040E94151A88
:1034D0000895E4E7F2E086E0DCCFAAE2B0E0E3E7BB
:1034E000FAE10C94173085E694E02091F100FC019C
:1034F0002193CF01F4E08D369F07B9F780916604E0
:10350000833009F470C0B8F4813009F447C08230C8
:1035100009F4B1C08091E80083FF7EC28091650408
:10352000909166049A3008F077C2E92FF0E0E65FE8
:10353000FE4C0C9481308A3009F48CC08B3009F435
:103540006FC0893039F780916504813219F7809115
:10355000690490916A040297E8F68091E800877FF9
:103560008093E8008091E80082FF38C09091F300DA
:103570008091F200029731F48091F100813011F0D6
:10358000863021F48091F100809358048091E80006
:103590008B778093E8000E942107BCCF809165045F
:1035A000813A09F0B7CF8091E800877F8093E800E7
:1035B0008091690490916A04892B61F468E089E53F
:1035C00094E070E00E94CD078091E8008B778093B3
:1035D000E800A0CF60E090E080E0F3CF809163044A
:1035E0008111C0CF97CF80916504813A09F092CFC5
:1035F0008091690490916A04892B09F08BCF8091A6
:10360000E800877F8093E8008091E80080FFFCCF8E
:10361000809141018093F1008091E8008E77B9CFCD
:1036200080916504813209F075CF80916904909191
:103630006A04892B09F06ECF8091E800877F809320
:10364000E8000E94210780916704809341010E9455
:103650003C1A60CF80916504813209F05BCF809184
:10366000E800877F8093E8000E942107809168042A
:10367000809357044FCF80916504813A09F04ACF77
:103680008091E800877F8093E8008091E80080FFC8
:10369000FCCF80915704BECF803899F0823809F072
:1036A000BBC1809169048F70873008F0B5C18093E9
:1036B000E9008091EB0085FB882780F91092E900F2
:1036C00006C0809161049091620491118260909192
:1036D000E800977F9093E8008093F1001092F1004A
:1036E0008091E8008E7794C1882309F482C18230EA
:1036F00009F092C180916704811185C180916904AC
:103700008F702FEF280F263008F086C18093E900D4
:103710002091EB0020FF77C1933031F48091EB00D2
:1037200080628093EB006FC19091EB009061909369
:10373000EB0021E030E001C0220F8A95EAF72093E8
:10374000EA001092EA008091EB008860EACF8111D4
:1037500063C1109167041F778091E3008078812B0B
:103760008093E3008091E800877F8093E8000E94C7
:1037700021078091E80080FFFCCF8091E300806802
:103780008093E30082E0111183E08093630444C1DD
:103790008058823008F040C180916704909168049D
:1037A0008C3D23E09207A1F583E08A838AE2898336
:1037B0004FB7F894DE01139620E03EE051E2E32F8C
:1037C000F0E050935700E49120FF03C0E295EF70C2
:1037D0003F5FEF708E2F90E0EA30C0F0C7968D9378
:1037E0009D932F5F243159F74FBF8091E800877F69
:1037F0008093E8006AE270E0CE0101960E94CD0756
:103800008091E8008B778093E80006C1C096E7CFEF
:103810004091690450916A04292F332723303105E0
:1038200009F444C078F52130310509F46FC08BE309
:1038300090E0E9EBF6E02230310509F0EDC020918F
:10384000E800277F2093E80020916B0430916C04FE
:103850008217930708F49C0140E02115310509F017
:1038600064C0411162C08091E80082FDC9CF80919F
:103870006304882329F2853019F28091E80083FFE0
:10388000F2CFBECF21323105A9F12232310509F044
:10389000C3C04115510509F443C04130510509F039
:1038A000BBC086EB90E0EFEBF5E0C9CF9927813004
:1038B0009105C1F0009759F0029709F0ADC0E6E01C
:1038C000F7E0E4918E2F90E0E6E0F7E007C0E6E253
:1038D000F7E0E4918E2F90E0E6E2F7E0009709F43C
:1038E0009BC0ADCFE4E1F7E0E4918E2F90E0E4E1FE
:1038F000F7E0F4CF4115510571F04130510509F061
:103900008BC089E090E0E4EEF6E099CF82E190E0B0
:10391000E4EFF6E094CF89E090E0EBECF6E08FCFB7
:1039200084E490E0E5E7F6E08ACF809163048823A1
:1039300009F466CF853009F463CF8091E80083FDF8
:103940005FCF8091E80082FD8ECF8091E80080FFFC
:1039500084CF9091F3008091F2002115310519F088
:103960008830910550F041E0089709F040E08091DF
:10397000E8008E778093E80070CF44914093F10087
:103980003196215031090196E8CF803809F044C0C2
:103990008091E800877F8093E800809164048093A1
:1039A000F1009ECE811138C0109167041230A0F54D
:1039B0008091E800877F8093E800109364040E9460
:1039C0002107112311F084E005C08091E30087FDF9
:1039D000FACF81E08093630442E061EC81E00E94D1
:1039E000400742E261EC82E00E944007809163045C
:1039F00013C080916704813079F481E0933009F03D
:103A000080E0809362041092E9008091E800877F53
:103A10008093E8000E9421078091E80083FF0AC09C
:103A20008091E800877F8093E8008091EB008062BE
:103A30008093EB00AA96E3E00C9433301F920F9230
:103A40000FB60F9211242F933F934F935F936F9371
:103A50007F938F939F93AF93BF93CF93DF93EF9316
:103A6000FF93D091E900DF708091EC00C82FC17006
:103A700080FDC0E81092E9008091F000877F80937C
:103A8000F00078940E946D1A1092E9008091F00085
:103A900088608093F000CD2BCF70C093E900FF9138
:103AA000EF91DF91CF91BF91AF919F918F917F91D6
:103AB0006F915F914F913F912F910F900FBE0F909B
:103AC0001F9018950E943C1A2FEF84E39CE0215030
:103AD00080409040E1F700C0000088E19CE00FB614
:103AE000F894A895809360000FBE90936000FFCF7C
:103AF000409143049091450420914604662309F4C3
:103B000069C0942B922B20914404922B31F098E0C1
:103B100090933A0491E090933B048D3C41F40E94D1
:103B200016098195809344040E94151A08958E3CCD
:103B300019F40E941609F6CF8F3C31F40E94160941
:103B4000819580934304F0CF803D19F40E941609BB
:103B5000F8CF893D29F40E94F40880934504E4CF0E
:103B60008A3D21F40E94F4088195F7CF8B3D31F412
:103B70000E94F408819580934604D6CF8C3D19F4B9
:103B80000E94F408F8CF9FE2980F983070F4815D9E
:103B9000990B21E030E001C0220F8A95EAF780916D
:103BA0004204822B80934204BFCF8D3D31F480913B
:103BB0003C04816080933C04B7CF8E3D21F480911A
:103BC0003C048260F7CF8F3D09F0AECF80913C047A
:103BD0008460F0CF8D3C59F48091440487FF0DC080
:103BE0001092440441110BC010923A0408C08E3C5C
:103BF00081F48091440418169CF3442381F0809151
:103C0000450490914604892B09F08ECF10923B0415
:103C10008BCF8F3C49F447FFF0CF10924304809143
:103C200044048111ECCFE0CF803D19F41416ACF3BD
:103C3000E4CF893D29F4191604F710924504DDCF2D
:103C40008A3D19F497FFD9CFF8CF8B3D29F427FF90
:103C5000D4CF10924604D1CF8C3D19F41216CCF378
:103C6000CCCF9FE2980F983090F4815D990B21E0C2
:103C700030E0B90102C0660F771F8A95E2F7CB01E9
:103C8000809590914204892380934204B6CF8D3D64
:103C900031F480913C048E7F80933C04AECF8E3D06
:103CA00021F480913C048D7FF7CF8F3D09F0A5CFA3
:103CB00080913C048B7FF0CF882381F19CEF980F9B
:103CC000913A28F40E943A080E948C11089590E2DB
:103CD000980F983050F4877091E001C0990F8A9541
:103CE000EAF7892F0E94590FEFCF9BE5980F933089
:103CF00028F490E080E00E94BE08089598E5980FAF
:103D00009B3128F490E080E00E949908089593E3A5
:103D1000980F933118F460E00E94781D0895CF93B6
:103D2000C82F8823B1F18CEF8C0F813AA0F58091D8
:103D30004101882301F180914F0487FF1CC0EC2FC3
:103D4000E695E695E695F0E0E658FD4F828190E035
:103D50004C2F477021E030E002C0220F331F4A95FC
:103D6000E2F782239323892B79F08C2F0E943A0863
:103D70000E948C1109C0E4E7F2E08191C817A9F311
:103D800082E0EA37F807C9F78C2F0E9465080E9485
:103D90008C11CF91089580E28C0F883068F4C77041
:103DA00021E030E001C0220FCA95EAF78091E602D7
:103DB000822B8093E602EBCFEBE5EC0FE33040F48F
:103DC000F0E0E75BFE4F808190E00E94BE08E1CF0B
:103DD000E8E5EC0FEB3150F4F0E0EE0FFF1FE45B91
:103DE000FE4F808191810E949908D3CF83E38C0F8D
:103DF000833178F661E08C2F0E94781DCACF0F9333
:103E00001F93CF93DF93C62FD42F022FFC01858100
:103E10008823A9F06093AD040E94091A9093AC0422
:103E20008093AB04C77081E001C0880FCA95EAF7A0
:103E30000E94E511DF91CF911F910F91089580911C
:103E4000AD04681335C08091AB049091AC040E941E
:103E5000FA19883C910560F510E21D0FCD17B9F0F5
:103E600080E28C0F883040F4C77081E001C0880F79
:103E7000CA95EAF70E94DE11183048F481E09D2FC0
:103E8000977001C0880F9A95EAF70E94E511802F7C
:103E90000E948F1E802F0E945C1E183058F6D7702B
:103EA00081E001C0880FDA95EAF70E94DE11C2CFE7
:103EB000C77081E001C0880FCA95EAF7F6CFB0E07D
:103EC000A0E0E5E6FFE10C9410308C01FC01848158
:103ED000882309F467C021E04081518162817381A8
:103EE00095810E94A110EC01F8019581992309F4B4
:103EF0004CC4818180934B03808180934A0380E28C
:103F000080933501D0934903C09348039E013052FA
:103F10002115304238F4F8018681807F09F45EC0B3
:103F2000FE010AC09E01305421153041C8F4F80149
:103F30008681807FFE0109F0FF27ED33F10528F42B
:103F4000E455FF4FE491E0933501FE01E851FC4751
:103F5000E730F10508F042C0EC5EFE4C0C94813075
:103F60009E013A9521153F41D8F29E01205A3245D3
:103F70002032310550F3FE01E0CF26E241EE61EE42
:103F8000C8010E94FF1E8091BB02877059F0F801A2
:103F90008581882339F08091500482FF03C082E03C
:103FA0000E945210CDB7DEB7EAE00C942C3027E225
:103FB00045EE65EEE5CF26E241EE60EEE1CF27E289
:103FC00045EE64EEDDCF26E241EE62EED9CF27E288
:103FD00045EE66EED5CF28E241E0EBCF1092AD047E
:103FE0009E0130572332310508F0E9C384E090E0A8
:103FF0000E94BE309093500480934F04FE01E15024
:10400000F047E232F10520F4E55EFE4C0C9481307D
:1040100080914F04816080934F0495C0809150043B
:104020008860809350048FC080914F048260F3CFEA
:1040300080914F048460EFCF80914F048860EBCF74
:10404000809150048160EDCF809150048260E9CF6F
:1040500080914F048061DFCF80914F048062DBCF7D
:1040600080914F048064D7CF0E943C1A80914F0406
:104070008068D1CF80914F048C60CDCF8091500467
:104080008360CFCF80914F048E7FC5CF8091500445
:10409000877FC7CF80914F048D7FBDCF80914F0424
:1040A0008B7FB9CF80914F04877FB5CF809150042B
:1040B0008E7FB7CF809150048D7FB3CF80914F0416
:1040C0008F7EA9CF80914F048F7DA5CF80914F0423
:1040D0008F7BA1CF0E943C1A80914F048F779BCF9A
:1040E00080914F04837F97CF809150048C7F99CF2C
:1040F00080914F0482FB992790F921E0922790FB51
:1041000082F990FB83F987CF80915004982F909586
:1041100091708E7F892B90FB81F983CF90914F0412
:10412000892F8F7B96FF806476CF0E943C1A9091F6
:104130004F04892F97FB87F980586DCF61E08EE09F
:1041400090E00E94D43060914F047091500484E05C
:1041500090E00E94F2300E943C1A15CF60E0EFCF51
:1041600090914F04892F8F7E94FF806154CF90915E
:104170004F04892F8E7F90FF81604DCF9091500426
:10418000892F877F93FF88604CCF85E328C3809178
:104190009A02811104C089E20E943A0822C385E391
:1041A000FBCF992309F4FDC2C3303CE7D30709F4E0
:1041B000C0C008F0A3C0C1159CE7D90709F4ACC082
:1041C000C130DC4709F4BBC0F8018581C081D181D1
:1041D000882309F4C2C0CE010E94910FF82E682FE7
:1041E000CE010E940510BE018F2D0E941C0E0E9460
:1041F0003B0ED82FC92FA82EF801C580B680B294E7
:104200003FE0B3228091BB02877009F1EC2CCC20F7
:10421000F9F0892F807F803469F080E28D0F88303B
:10422000B0F0892F807E803229F4F1E0FD1778F418
:10423000BB2069F08091500482FF09C082E00E9497
:1042400052108091BB028770EE24E3948111E12C1F
:10425000DC2ED2942FE0D2222BE02D1508F4E2C000
:10426000ED2DF0E0E35CFE4C0C9481308091AF04C6
:1042700091E089278093AF04109245018091AE04AC
:1042800081608093AE047FCE4CED59E066EE79E01C
:104290000E94440978CE46EE59E06CED79E0F8CF03
:1042A00048EC59E062ED79E0F3CF42ED59E068EC7B
:1042B00079E0EECF4EEA59E06BEB79E0E9CF4BEBDA
:1042C00059E06EEA79E0E4CF44E959E061EA79E047
:1042D000DFCF41EA59E064E979E0DACF48E759E015
:1042E00066E879E0D5CF46E859E068E779E0D0CFD5
:1042F00081E00E946F0647CE85E0FBCFCB35FCE71F
:10430000DF0749F1CC352CE7D207D9F0CA35DC47B5
:1043100009F05ACF81E01CC00E943C1A8FEF94E351
:10432000ECE081509040E040E1F700C000000E94C6
:1043300053126FEF7FEF90E080E00E94F2300E9416
:10434000621D8091500482FB882780F991E08927C3
:104350000E94D01639CF80E0FBCFCE010E94D20F51
:10436000F82E41CF3C2F3F70F32EC07F19F0F2940E
:1043700090EFF922CC20B9F0FF2069F080E28D0F98
:10438000883010F0A11009C08091E602F82AF0925E
:10439000E6020E948C118D2F43C08091BD02F82A45
:1043A000F092BD02F6CF8D2F0E945C1EFF20D1F14E
:1043B000D05ED83010F0A11004C08F2D0E94590F8C
:1043C00006C0F0948091BD02F822F092BD020E94D6
:1043D0008C1128C08C2F8F70F82EC07FC03219F03E
:1043E000F29480EFF822AA2059F091E0A91609F47E
:1043F00079C0CC2009F485C0BB2009F447C0CBCFDD
:104400008091500482FD3EC0CC20B1F1FF2039F0F4
:104410008091E602F82AF092E6020E948C1180E078
:104420000E948F1E2D2D2850330B2430310510F49F
:104430000E94E308EE20A9F08091BB0280FD11C02C
:10444000F80115828695869586950E946910C801A7
:104450000E945F1F8091BB028695869586950E947B
:10446000401020E0F8014081518162817381848194
:1044700095810E94A11096CD80E00E945C1EFF20D5
:1044800089F29BCFCC20A1F0B11004C08F2D0E94E7
:10449000E511C8CFE1E0BE12C5CF8091BC029F2DCF
:1044A0009823F91609F4BECFF82AF092BC02BACFCD
:1044B000B110B8CF8F2D0E94DE119091BC028F2DCC
:1044C000892329F08F2D809589238093BC028091C8
:1044D0009B029F2D982309F4A5CFF094F822F09227
:1044E0009B02A0CFCC2029F0F5E0FB1508F49ACF71
:1044F000CDCF24E02B1508F495CF8F2D0E94DE112F
:1045000091CFBB20D1F339E3A31209C08FEF97EE0F
:10451000E3E081509040E040E1F700C000008D2FC3
:104520000E945C1E7FCF8C2F86958695837069F0E4
:10453000813009F077CF8D2F9C2F9370C11002C06E
:1045400080E090E00E9499086DCF8D2F9C2F937092
:10455000C11002C080E090E00E94BE0863CF6C2DC5
:104560008D2F0E94781D5ECF8C2F837009F03FC085
:10457000C11058CF4D2F429546954770440F440FB8
:104580002D2F2F7030E0042E02C0220F331F0A940B
:10459000E2F790E080E0D4FF09C08FE090E002C035
:1045A000880F991F4A95E2F780959095C695C69514
:1045B000C370C23099F078F44091E7025091E8025C
:1045C000C13039F0822B932B842395230E947910DC
:1045D00029CF242B352B822B932BF8CF822B932B97
:1045E0002091E7023091E80282279327EFCF86954A
:1045F000CC2011F08C2F8170882309F413CF4D2F1C
:10460000429546954770440F440F2D2F2F7030E090
:10461000042E02C0220F331F0A94E2F790E080E0DC
:10462000D4FF09C08FE090E002C0880F991F4A951F
:10463000E2F780959095C695C695C370C23099F003
:1046400078F440913F0350914003C13039F0822B00
:10465000932B842395230E943B10E4CE242B352BEF
:10466000822B932BF8CF822B932B20913F033091F9
:10467000400382279327EFCFCF70CC2029F08C2FD7
:104680000E9469108D2F03CF8D2F0E94DE118C2F79
:104690000E944010C7CE8D2FF2EFAF1699F1FA1598
:1046A00070F020EFA216D1F031EFA31691F0CC20DC
:1046B00009F45BC0B1106FCE8C2F8F7127C093EFC0
:1046C000A91639F1E4EFAE12F2CF8091500482FDC9
:1046D0002EC08C2F8F71CC20D9F218C0CC2069F05D
:1046E000F4E0FB1508F49ECECF7181E090E002C0AB
:1046F000880F991FCA95E2F7B8CF25E02B1508F46B
:1047000091CEF2CF8C2F8F71C110C2CF0E94691051
:1047100089CE90E080E0CC2009F49DCFCF7181E07C
:1047200090E002C0880F991FCA95E2F794CFCC2081
:1047300089F0CF718C2F0E9469108091500482FF04
:1047400007C038E0C39FC001112483608093BB027F
:104750008C2FDCCF81E00E94521081E08B1508F095
:1047600061CE82E00E9452105DCEBB2059F08933A9
:1047700009F0D5CE9FEFE7EEF3E09150E040F04036
:10478000E1F7CBCE8C2F8F7183CFFE01E851FC4730
:10479000E730F10508F4E0CBC6312CE7D20709F485
:1047A000F6CC8091E6028272FE01E052F847E531D4
:1047B000F10508F009CDE75BFE4C0C948130C63161
:1047C000FCE7DF0709F0EDCC8091E6028A7A91E000
:1047D00009F490E090939A028111D7CC89E20E946B
:1047E00065080E948C11CFCBCF93DF938091BA02E2
:1047F000807F09F04DC08091B902882309F448C038
:10480000E091A60450916D04C091B502D091B4021C
:104810006091B6027091B70247E05E17C9F18E2F22
:1048200090E0E49FF0011124E259FB4F2481222300
:1048300091F1489FF001499FF00D1124DF01A25929
:10484000BB4F11962C9111972C1325C02C912D1331
:1048500022C015962C91159721111DC012962D91ED
:104860003C91261B370B283C3105A8F48091BA02F5
:104870008F7080618093BA02EC58FB4F80818F70FB
:104880008061808384EB92E00E945F1F0E94870F0B
:10489000DF91CF910895FC013196E770BECFA4E17E
:1048A000B0E0E5E5F4E20C940E308C0186E0F8010E
:1048B000DE011F9601900D928A95E1F7F80184813F
:1048C000E58094EBA92E92E0B92E9091B802911157
:1048D00028C0882319F1EE20F1F0C8010E947E1053
:1048E000F82E8823C1F087E0F801D50101900D92E0
:1048F0008A95E1F78091B802813031F48091B40259
:104900009091B5020E94C50F0E94F4238F2D6496EA
:10491000ECE00C942A30C8010E945F1FFF24F3943E
:10492000F5CFD080C18082809380F090B902209131
:10493000B6023091B702A401421B530BFF2009F4C9
:10494000D9C0483C510508F092C08823F9F29091F3
:10495000B5028091BA02282F207F09F056C0C912F3
:1049600014C09091B402D91210C0E11048C08F70E9
:1049700080618093BA0284EB92E00E945F1F809175
:10498000BA02F8018683F12CC1CFE11038C06C2D3A
:104990008D2D0E9488066C2D8D2D0E948806E82E94
:1049A0008111F1CFDF86C88A8F8598890E94C50F53
:1049B000292F22952F70243058F49F70223088F0D0
:1049C000992399F0F8019681907F79F4FE2C9ECF7F
:1049D0002A5F2F70223068F0C8010E945F1FEF2C01
:1049E000F5CF992311F0882389F3805E883070F326
:1049F000F3CF803F58F3815F833070F7E7CF80912A
:104A0000BA0281608093BA02BECFC91207C09091EA
:104A1000B402D91203C0EE2009F48DC0C8010E946F
:104A20007E10882309F477CFEE2009F474CF8091AB
:104A3000BA02803288F02091B4023091B5023987F1
:104A400028879B868A869091B8029C871D868E87D0
:104A5000CE0108960E945F1F87E0F801A4EBB2E048
:104A600001900D928A95E1F70E94F42357CF90911F
:104A7000BA02292F207F51F484EB92E00E945F1F3D
:104A800087E0F50111928A95E9F77DCF882309F433
:104A90003DCF8091B5028C1110C08091B402D81224
:104AA0000CC0E1100AC09683C8010E945F1F87E016
:104AB000F50111928A95E9F729CFC8010E947E106D
:104AC000882309F428CFEE2009F425CF8091BA027B
:104AD000803210F22091B4023091B5023A832983DA
:104AE0009C828B829091B8029D831E828F83CE011F
:104AF0000196B0CF483C5105D0F6882309F40ECF7B
:104B0000FE2CEE2009F407CF8091B5028C1120C055
:104B10008091B402D8121CC08091BA0280FD0FC0EF
:104B2000982F907F61F08683903F31F0982F907F8F
:104B3000905F8F70892B8683C8010E945F1F87E07A
:104B4000F801A4EBB2E001900D928A95E1F7DECE78
:104B5000C8010E947E1081117FCF8091BA028160CE
:104B60008093BA02C8010E945F1FD0CEABE1B0E0D3
:104B7000ECEBF5E20C9416304E8B5F8B688F798FDF
:104B80008A8F9B8F192F91111092BD021D8A86E08A
:104B9000FE017696DE011F9601900D928A95E1F74F
:104BA0000A8D002341F021E04F85588969897A896F
:104BB000C8010E94A1100B8B1C8B87E0FE013F9661
:104BC000DE01189601900D928A95E1F7CE010896C4
:104BD0000E944F2481112AC087E0FE013896DE0131
:104BE000119601900D928A95E1F78C858823F1F05A
:104BF00020916D0430E0C90101968770992740919A
:104C0000A60448171906E9F097E0929FD001939FF8
:104C1000B00D1124A259BB4FFE01319601900D92A7
:104C20009A95E1F780936D040E94870F17E08091B9
:104C3000A60490916D04891312C06B96E4E00C9465
:104C400032300E943C1A10926D041092A60487E044
:104C5000E4EBF2E0DF011D928A95E9F7E7CF819F4F
:104C6000C001112482599B4F0E944F24882329F3AD
:104C70008091A60490E00196877099278093A604FE
:104C8000D6CFACE0B0E0E7E4F6E20C940D308E0154
:104C90000F5F1F4F88E0D8011D928A95E9F784E8DD
:104CA000C82E81E0D82EF12CE12CAA24A394B12C9B
:104CB0002EE8822E21E0922EF60181916F018F3F26
:104CC00009F442C0F894E82FE295EF70F0E021A1DA
:104CD0008F70A50102C0440F551F8A95E2F7CA01E3
:104CE000922F982B91A392A18095892382A37894E7
:104CF00000C0E8E8F1E0712C31E021912F3F09F488
:104D0000A3C0A22FA295AF70B0E090968C9190E0D6
:104D10002F7002C0959587952A95E2F780FD94C083
:104D2000832F782A330F8E169F0639F7F6013197B5
:104D300080818F3F11F00E94FA0C50EA5A95F1F7EA
:104D4000F801EE0DFF1D70828FEFE81AF80A94E06B
:104D5000E916F10409F0B0CF48E050E0B80184E270
:104D600093E00E949030009741F028E0F801A4E21F
:104D7000B3E001900D922A95E1F700912D0310E028
:104D8000025D1C4F892B09F461C081E08093ED0224
:104D90000E94091A9093EC028093EB02F12CE090B0
:104DA0004704EE2009F4ACC019861A861B861C86BF
:104DB00080911F038A3008F06DC04DE357E1BE01BA
:104DC000675F7F4FC8010E94A412882309F487C03F
:104DD00041E758E1BE01675F7F4FC8010E94A412FE
:104DE000882309F47CC047EE56E1BE01675F7F4F20
:104DF000C8010E94A412882309F471C047E458E155
:104E0000BE01675F7F4FC8010E94A412882309F486
:104E100066C010921F0380912C0390E044E050E0A4
:104E2000BE01675F7F4F825D9C4F0E94903021E002
:104E30002093F402892B09F044C0E12C8E2D8F2998
:104E40002C96EDE00C94293080E06BCFF090ED02D1
:104E5000FF2009F4A3CF8091EB029091EC020E9415
:104E6000FA19059708F49ACF44E050E064E273E041
:104E7000C8010E949030892B59F084E0E4E2F3E00D
:104E8000D80101900D928A95E1F71092ED0287CF3B
:104E9000F12CFBCF8091EE029091EF020E94FA1963
:104EA000843F914008F089CF8091F402882329F251
:104EB000FE01399684E0DF011D928A95E9F7109290
:104EC000F402E0912C03F0E0E25DFC4F89859A85C5
:104ED000AB85BC8580839183A283B383AFCF809160
:104EE0001F038F3F31F08F5F80931F038A3008F4D8
:104EF00092CF0E94091A9093EF028093EE02D4CFD2
:104F0000C0902C03D12CF601E25DFC4F6F0184E0D0
:104F1000F801A2E0B3E001900D928A95E1F782E0FA
:104F200093E00E94A7068093010384E0E6E0F3E0AB
:104F3000D60101900D928A95E1F780900A03909036
:104F40000B03A0900C03B0900D038091F0029091A0
:104F5000F102A091F202B091F30288169906AA0616
:104F6000BB06B1F08092F0029092F102A092F202A0
:104F7000B092F3020E942E08861A970AA80AB90A6C
:104F80008092200390922103A0922203B0922303E7
:104F900088E0EEE0F3E0AFEAB4E001900D928A958C
:104FA000E1F74CCFA6E0B0E0E8EDF7E20C94163064
:104FB0000E94091A8C018091E9029091EA028017FF
:104FC000910781F019821A820E94091A682F49817B
:104FD0005A81792F80E090E00E94B6251093EA0272
:104FE0000093E9022696E4E00C9432301F921FB63B
:104FF0001F9211248F939F93AF93BF93809151047D
:10500000811113C08091520490915304A0915404D3
:10501000B09155044196A11DB11D80935204909307
:105020005304A0935404B0935504BF91AF919F9142
:105030008F911F901FBE1F901895CDB7DEB7619757
:105040000FB6F894DEBF0FBECDBF85B7806885BFB1
:1050500085B7806885BF84B7877F84BF0FB6F89413
:10506000A895809160008861809360001092600034
:105070000FBE80E890E00FB6F894809361009093A3
:1050800061000FBE88EF9CE09093710280937002E4
:105090000E94D1060E9472078091E2008460809392
:1050A000E2007894809163048823A1F01091E900D4
:1050B0001F709091EC00892F817090FD80E8182B73
:1050C0001092E9008091E80083FD0E946D1A1F7024
:1050D0001093E90082E084BD93E095BD9AEF97BDFF
:1050E00080936E00109220031092210310922203ED
:1050F0001092230388EC90E01091E300111F112718
:10510000111F61F4AFE3BCE91197F1F700C0000093
:10511000019791F70E94D1061092630410934704FF
:10512000109348041093280111110E94922E80912F
:1051300028018091280194E0811190E090932D0343
:1051400084E0891B80932C0384E90E94FA0C86E694
:105150000E94FA0C87E90E94FA0C86EC0E94FA0C75
:1051600008E811E0F80181918F018F3F11F00E9452
:10517000FA0CF1E00E381F07A9F788E0EEE2F3E041
:10518000DF01282F1D922A95E9F7E4E2F3E0DF0121
:105190001D928A95E9F790E080E00E94BE30863E3D
:1051A0009E4F11F00E948D1882E090E00E94B63070
:1051B0008093360384E090E00E94BE3090935004C8
:1051C00080934F040E944126EFEFF6E721E0E15083
:1051D000F0402040E1F700C000000E94412680918D
:1051E0004804E4E08111E0E0F0E0E25DFC4F808102
:1051F00081FF08C06FEF7FEF90E080E00E94F23007
:105200000E94531283E090E00E94B63090E00E942A
:1052100079100E94750990E080E00E94BE30863EC1
:105220009E4F21F00E948D180E94B51681E0809358
:10523000AE0448E050E068E170E08FEA94E00E943C
:10524000A6301092AE048091AF048C7F11F40E94BE
:10525000B516809147048111B4C082E080936C033D
:1052600080E88093B7040E944C2D6BE070E08FE7DC
:1052700092E00E94D7128823E9F180916C0365E0E7
:1052800070E081FDA0C08AE792E00E94D7128823D7
:1052900089F16DE070E088E692E00E94D7128823E1
:1052A00049F10E942E08605A75418F4F9F4F6093BD
:1052B0003404709335048093360490933704EAEBFA
:1052C000F4E080E092E0DF019C011D92215030402B
:1052D000E1F7F093C106E093C0068FEF9FEF909344
:1052E000B9048093B80481E0809339048093380432
:1052F00010926D0380914704811102C00E94952E87
:1053000089E291E090934C0480934B042AE0C22EF2
:10531000D12CE12CF12C8091630400E112E1853065
:1053200009F490C00E94412607E313E09EE2A92EF3
:1053300093E0B92E2FE333E0D501F80191918D91DF
:105340002E173F0709F488C09817C1F3409047040F
:10535000912C33243394D5018D905D01F801519047
:105360008F01581429F1712C662463945824852DDB
:105370008621B1F04420A1F07F8298860E94091A0C
:105380009A8789873B8691E0882D862109F490E0F1
:105390009C874F81588569857A858B850E94B625C3
:1053A0007394660CF6E07F12E2CFF80131978082A9
:1053B000939428E09212CFCF0E94110D31E03D87E7
:1053C00050C080E04BCF85E792E05FCF80916304CF
:1053D000843041F10E9444130E9401131092510441
:1053E00088E190E0A0E40FB6F894A895809360005F
:1053F0000FBEA093600083B7817F846083BF83B7B3
:10540000816083BF7894889583B78E7F83BF0FB602
:10541000F894A89580916000886180936000109254
:1054200060000FBE80916204882361F00E944126D3
:10543000EEE2F3E0819181110AC326E333E02E17F7
:105440003F07C1F780916304853009F4BFCF0E9404
:105450003C1A0E94E30866CF981378CF0E94D227A7
:105460001D860E94441380913904882309F4B3C037
:1054700080916E0390916F030E94FA19C29708F40D
:105480008AC00E94091A90936F0380936E038AEB7F
:1054900094E09093C1068093C006809147048823CE
:1054A00009F4C2C18BEA92E00E94461120913F03A9
:1054B00030914003832F9927009751F19C0188E098
:1054C000A90104E0569547950A95E1F74115510564
:1054D00011F08C5F9A01A90156954795569547950D
:1054E0004115510511F08E5F9A0136952795232BB2
:1054F00009F08F5F813009F451C1882359F082305F
:1055000009F44FC1833009F44FC18AE892E004C026
:1055100080E0D6CF83EA92E00E94861180914B030F
:10552000805D0E94C61089EB92E00E944611809136
:105530004A03805D0E94C61085EB92E00E944611EE
:105540004090480350904903809133019091340179
:105550004816590609F02BC180914703803209F0A3
:1055600026C1E1E4F3E08F0181918032E1F3F8019B
:1055700001900020E9F79F012150310959010A15D6
:105580001B0508F44BC183EB92E00E944611809109
:1055900035010E94C6108091B8049091B904892BFE
:1055A00009F06FC1809138048823A9F00E942E0869
:1055B0000091340410913504209136043091370461
:1055C000601B710B820B930B6F3F7F4F8F4F9F4779
:1055D00010F40E9401136D8561110E941C1386E076
:1055E000E1E4F4E0DE01119601900D928A95E1F775
:1055F000909042041091430400914404A09045040B
:10560000B090460410924304109244041092450452
:1056100010924604812F802B09F445C080913F04ED
:10562000909140040E94FA199C0190913A049923A8
:1056300009F42DC225313105B0F19F3F19F09F5F6C
:1056400090933A04112359F00E9416099FEF111606
:105650000CF491E0899F802D112480934304002352
:1056600059F00E94160991E010160CF09FEF899FE7
:10567000802D11248093440480914304882399F061
:1056800080904404882079F00E943609882309F428
:10569000D6C180934304882D0E943609882309F4DB
:1056A000D0C1809344048A2D8B2909F445C0809190
:1056B0003D0490913E040E94FA199C0190913B0494
:1056C000992309F4DFC121353105B0F19F3F19F06D
:1056D0009F5F90933B04AA2059F00E94F4089FEF2B
:1056E0001A140CF491E0899F802D112480934504B5
:1056F000BB2059F00E94F40891E01B140CF09FEFBE
:10570000899F802D1124809346048091450488232D
:1057100099F0A0904604AA2079F00E9436098823C7
:1057200009F491C1809345048A2D0E94360988238B
:1057300009F48BC18093460480914204981217C0EB
:1057400080914304882311F0181311C02091440460
:10575000222311F002130BC090914604992311F0FB
:105760009B1105C030914504332309F486C10E9482
:10577000151A86E0FE013196A1E4B4E001900D9285
:105780008A95E1F70E94E30890917003891709F464
:10579000C2CD809370030E942E08BDCD8DE992E0AA
:1057A000BBCE87E992E0B8CE80E992E0B5CE5092C8
:1057B00034014092330180E280934703712C612CC5
:1057C00010924603F1E48F2EF3E09F2EACE3AA2E55
:1057D000A3E0BA2E8401C301B201A70196010E9481
:1057E0005F30605D603319F48016910631F041142A
:1057F00051046104710409F460E2D80114966C93B9
:10580000C301B201A70196010E945F3029013A014C
:1058100001501109A016B106F1F6A3CED8018D9161
:105820008D010E94C610ABCE2091B8043091B9040E
:10583000AAEBB4E090E080E041E050E0FC01E554E8
:10584000FD4F64917D91671791F0FD013197608361
:10585000BC01E5E076956795EA95E1F7FA0102C0AB
:10586000EE0FFF1F6A95E2F7BF012E2B372B019633
:105870008115F2E09F0711F73093B9042093B80423
:105880008ACE80913904882309F48CCE80916D03EF
:10589000811188CE0E941C132091B8043091B90464
:1058A0002115310509F47ECE80E041E050E0482E1C
:1058B000512C1A01082E02C0220C331C0A94E2F764
:1058C000B10162237323672B11F48F5FF0CF9091A6
:1058D0006C0390FF9AC0880F880F880F809338015F
:1058E00010923B01895F8093390183E080933C01F2
:1058F00024E630E047E050E066E371E088E70E948C
:10590000EC2D892B09F04ECE95E0440C551C9A9550
:10591000E1F780916C0380FF8AC0ECE4F3E080E261
:10592000DF011D928A95E9F7E2E9F1E0F98BE88B56
:105930004EE851E087E0A82E99249394A889B9896C
:105940006D91B98BA88BFA018191AF01840D952DD2
:10595000911D9C0126543B4F3F872E87E62FF0E098
:10596000E45BFC4F90E080E06A2C681AB92C082EAA
:1059700001C0BB0C0A94EAF76E857F8500E0DB016D
:105980001D91BD011B21262D201B2770822E022E6A
:10599000000C330BB12F01C0BB0F8A94EAF78B2E9A
:1059A0003195219531092770332701C016952A9525
:1059B000EAF7812A1081812A80820F5F0830F9F688
:1059C000019631968830910579F6E889F989E6598A
:1059D000F14009F0B3CF04E610E020E230E04CE4FF
:1059E00053E060E488E70E940D2E892B09F0DACDA0
:1059F000209430948091B8049091B90428223922DF
:105A00003092B9042092B804CDCD8295880F80766B
:105A100080933801920136952795369527952093E6
:105A20003B01815E8093390120933C0161CFA2014B
:105A300046545B4F04E610E020E230E0D2CF81E034
:105A400028CE81E02ECE81E06DCE81E073CE09BDFF
:105A500019BD09B400FEFDCF8091D8008F7D8093E1
:105A6000D8008091E00082608093E0008091E000A7
:105A700081FDFCCF0E943C1AE5CC822B892B09F4D6
:105A800078CE75CE2B30310508F022CE55CE2B3096
:105A9000310508F0D4CD07CE1092B9008CE0809388
:105AA000B8000895B0E0A0E0E8E5FDE20C940F3006
:105AB000B82EEB010E94091A6C01EE24E394F12C3C
:105AC000C431D10560F025E0E22EF12CCF3FDC0798
:105AD00031F0CE0164E170E00E94F42F7B0184EA92
